Component: ARM Compiler 5.06 update 4 (build 422) Tool: armlink [4d35d2]

==============================================================================

Section Cross References

    startup_stm32f401xc.o(RESET) refers to startup_stm32f401xc.o(STACK) for __initial_sp
    startup_stm32f401xc.o(RESET) refers to startup_stm32f401xc.o(.text) for Reset_Handler
    startup_stm32f401xc.o(RESET) refers to stm32f4xx_it.o(i.NMI_Handler) for NMI_Handler
    startup_stm32f401xc.o(RESET) refers to stm32f4xx_it.o(i.HardFault_Handler) for HardFault_Handler
    startup_stm32f401xc.o(RESET) refers to stm32f4xx_it.o(i.MemManage_Handler) for MemManage_Handler
    startup_stm32f401xc.o(RESET) refers to stm32f4xx_it.o(i.BusFault_Handler) for BusFault_Handler
    startup_stm32f401xc.o(RESET) refers to stm32f4xx_it.o(i.UsageFault_Handler) for UsageFault_Handler
    startup_stm32f401xc.o(RESET) refers to stm32f4xx_it.o(i.SVC_Handler) for SVC_Handler
    startup_stm32f401xc.o(RESET) refers to stm32f4xx_it.o(i.DebugMon_Handler) for DebugMon_Handler
    startup_stm32f401xc.o(RESET) refers to stm32f4xx_it.o(i.PendSV_Handler) for PendSV_Handler
    startup_stm32f401xc.o(RESET) refers to stm32f4xx_it.o(i.SysTick_Handler) for SysTick_Handler
    startup_stm32f401xc.o(RESET) refers to stm32f4xx_it.o(i.EXTI0_IRQHandler) for EXTI0_IRQHandler
    startup_stm32f401xc.o(RESET) refers to stm32f4xx_it.o(i.EXTI9_5_IRQHandler) for EXTI9_5_IRQHandler
    startup_stm32f401xc.o(RESET) refers to stm32f4xx_it.o(i.TIM3_IRQHandler) for TIM3_IRQHandler
    startup_stm32f401xc.o(.text) refers to system_stm32f4xx.o(i.SystemInit) for SystemInit
    startup_stm32f401xc.o(.text) refers to entry.o(.ARM.Collect$$$$00000000) for __main
    main.o(i.main) refers to port.o(i.peripherals_init) for peripherals_init
    main.o(i.main) refers to bphero_uwb.o(i.BPhero_UWB_Message_Init) for BPhero_UWB_Message_Init
==============================================================================

Removing Unused input sections from the image.

    Removing startup_stm32f401xc.o(HEAP), (512 bytes).
    Removing main.o(.rev16_text), (4 bytes).
    Removing main.o(.revsh_text), (4 bytes).
    Removing main.o(.rrx_text), (6 bytes).
    Removing stm32f4xx_it.o(.rev16_text), (4 bytes).
    Removing stm32f4xx_it.o(.revsh_text), (4 bytes).
    Removing stm32f4xx_it.o(.rrx_text), (6 bytes).
    Removing stm32f4xx_hal_msp.o(.rev16_text), (4 bytes).
    Removing stm32f4xx_hal_msp.o(.revsh_text), (4 bytes).
    Removing stm32f4xx_hal_msp.o(.rrx_text), (6 bytes).
    Removing stm32f4xx_hal_msp.o(i.HAL_I2C_MspDeInit), (40 bytes).
    Removing stm32f4xx_hal_msp.o(i.HAL_SPI_MspDeInit), (40 bytes).
    Removing stm32f4xx_hal_msp.o(i.HAL_TIM_Base_MspDeInit), (36 bytes).
    Removing stm32f4xx_hal_msp.o(i.HAL_TIM_Base_MspInit), (60 bytes).
    Removing stm32f4xx_hal_msp.o(i.HAL_UART_MspDeInit), (44 bytes).
    Removing dwm1000_timestamp.o(.rev16_text), (4 bytes).
    Removing dwm1000_timestamp.o(.revsh_text), (4 bytes).
    Removing dwm1000_timestamp.o(.rrx_text), (6 bytes).
==============================================================================

Image Symbol Table

    Local Symbols

    Symbol Name                              Value     Ov Type        Size  Object(Section)

    ..//Src/system_stm32f4xx.c               0x00000000   Number         0  system_stm32f4xx.o ABSOLUTE
    ../Drivers/STM32F4xx_HAL_Driver/Src/stm32f4xx_hal.c 0x00000000   Number         0  stm32f4xx_hal.o ABSOLUTE
    ../Drivers/STM32F4xx_HAL_Driver/Src/stm32f4xx_hal_cortex.c 0x00000000   Number         0  stm32f4xx_hal_cortex.o ABSOLUTE
    ../Drivers/STM32F4xx_HAL_Driver/Src/stm32f4xx_hal_dma.c 0x00000000   Number         0  stm32f4xx_hal_dma.o ABSOLUTE
    ../Drivers/STM32F4xx_HAL_Driver/Src/stm32f4xx_hal_dma_ex.c 0x00000000   Number         0  stm32f4xx_hal_dma_ex.o ABSOLUTE
    ../Drivers/STM32F4xx_HAL_Driver/Src/stm32f4xx_hal_flash.c 0x00000000   Number         0  stm32f4xx_hal_flash.o ABSOLUTE
    ../Drivers/STM32F4xx_HAL_Driver/Src/stm32f4xx_hal_flash_ex.c 0x00000000   Number         0  stm32f4xx_hal_flash_ex.o ABSOLUTE
    ../Drivers/STM32F4xx_HAL_Driver/Src/stm32f4xx_hal_flash_ramfunc.c 0x00000000   Number         0  stm32f4xx_hal_flash_ramfunc.o ABSOLUTE
    ../Drivers/STM32F4xx_HAL_Driver/Src/stm32f4xx_hal_gpio.c 0x00000000   Number         0  stm32f4xx_hal_gpio.o ABSOLUTE
    ../Drivers/STM32F4xx_HAL_Driver/Src/stm32f4xx_hal_i2c.c 0x00000000   Number         0  stm32f4xx_hal_i2c.o ABSOLUTE
    ../Drivers/STM32F4xx_HAL_Driver/Src/stm32f4xx_hal_i2c_ex.c 0x00000000   Number         0  stm32f4xx_hal_i2c_ex.o ABSOLUTE
    ../Drivers/STM32F4xx_HAL_Driver/Src/stm32f4xx_hal_pwr.c 0x00000000   Number         0  stm32f4xx_hal_pwr.o ABSOLUTE
    ../Drivers/STM32F4xx_HAL_Driver/Src/stm32f4xx_hal_pwr_ex.c 0x00000000   Number         0  stm32f4xx_hal_pwr_ex.o ABSOLUTE
    ../Drivers/STM32F4xx_HAL_Driver/Src/stm32f4xx_hal_rcc.c 0x00000000   Number         0  stm32f4xx_hal_rcc.o ABSOLUTE
    ../Drivers/STM32F4xx_HAL_Driver/Src/stm32f4xx_hal_rcc_ex.c 0x00000000   Number         0  stm32f4xx_hal_rcc_ex.o ABSOLUTE
    ../Drivers/STM32F4xx_HAL_Driver/Src/stm32f4xx_hal_spi.c 0x00000000   Number         0  stm32f4xx_hal_spi.o ABSOLUTE
    ../Drivers/STM32F4xx_HAL_Driver/Src/stm32f4xx_hal_tim.c 0x00000000   Number         0  stm32f4xx_hal_tim.o ABSOLUTE
    ../Drivers/STM32F4xx_HAL_Driver/Src/stm32f4xx_hal_tim_ex.c 0x00000000   Number         0  stm32f4xx_hal_tim_ex.o ABSOLUTE
    ../Drivers/STM32F4xx_HAL_Driver/Src/stm32f4xx_hal_uart.c 0x00000000   Number         0  stm32f4xx_hal_uart.o ABSOLUTE
    ../Src/main.c                            0x00000000   Number         0  main.o ABSOLUTE
    ../Src/stm32f4xx_hal_msp.c               0x00000000   Number         0  stm32f4xx_hal_msp.o ABSOLUTE
    ../Src/stm32f4xx_it.c                    0x00000000   Number         0  stm32f4xx_it.o ABSOLUTE
    ../clib/../cmprslib/zerorunl2.c          0x00000000   Number         0  __dczerorl2.o ABSOLUTE
    ../clib/microlib/division.c              0x00000000   Number         0  uidiv.o ABSOLUTE
    ../clib/microlib/division.c              0x00000000   Number         0  uldiv.o ABSOLUTE
    ../clib/microlib/errno.c                 0x00000000   Number         0  errno.o ABSOLUTE
    ../clib/microlib/init/entry.s            0x00000000   Number         0  entry11a.o ABSOLUTE
    ../clib/microlib/init/entry.s            0x00000000   Number         0  entry10b.o ABSOLUTE
    ../clib/microlib/init/entry.s            0x00000000   Number         0  entry10a.o ABSOLUTE
    ../clib/microlib/init/entry.s            0x00000000   Number         0  entry9a.o ABSOLUTE
    ../clib/microlib/init/entry.s            0x00000000   Number         0  entry8b.o ABSOLUTE
    ../clib/microlib/init/entry.s            0x00000000   Number         0  entry7b.o ABSOLUTE
    ../clib/microlib/init/entry.s            0x00000000   Number         0  entry9b.o ABSOLUTE
    ../clib/microlib/init/entry.s            0x00000000   Number         0  entry8a.o ABSOLUTE
    ../clib/microlib/init/entry.s            0x00000000   Number         0  entry.o ABSOLUTE
    ../clib/microlib/init/entry.s            0x00000000   Number         0  entry7a.o ABSOLUTE
    ../clib/microlib/init/entry.s            0x00000000   Number         0  entry5.o ABSOLUTE
    ../clib/microlib/init/entry.s            0x00000000   Number         0  entry2.o ABSOLUTE
    ../clib/microlib/init/entry.s            0x00000000   Number         0  entry11b.o ABSOLUTE
    ../clib/microlib/longlong.c              0x00000000   Number         0  llshl.o ABSOLUTE
    ../clib/microlib/longlong.c              0x00000000   Number         0  llsshr.o ABSOLUTE
    ../clib/microlib/longlong.c              0x00000000   Number         0  llushr.o ABSOLUTE
    ../clib/microlib/printf/printf.c         0x00000000   Number         0  printf3.o ABSOLUTE
    ../clib/microlib/printf/printf.c         0x00000000   Number         0  printf4.o ABSOLUTE
    ../clib/microlib/printf/printf.c         0x00000000   Number         0  printf0.o ABSOLUTE
    ../clib/microlib/printf/printf.c         0x00000000   Number         0  printf2.o ABSOLUTE
    ../clib/microlib/printf/printf.c         0x00000000   Number         0  printf1.o ABSOLUTE
    ../clib/microlib/printf/printf.c         0x00000000   Number         0  printfb.o ABSOLUTE
    ../clib/microlib/printf/printf.c         0x00000000   Number         0  printf6.o ABSOLUTE
    ../clib/microlib/printf/printf.c         0x00000000   Number         0  printf5.o ABSOLUTE
    ../clib/microlib/printf/printf.c         0x00000000   Number         0  printfa.o ABSOLUTE
    ../clib/microlib/printf/printf.c         0x00000000   Number         0  printf7.o ABSOLUTE
    ../clib/microlib/printf/printf.c         0x00000000   Number         0  printf8.o ABSOLUTE
    ../clib/microlib/printf/stubs.s          0x00000000   Number         0  stubs.o ABSOLUTE
    ../clib/microlib/stdio/putc.c            0x00000000   Number         0  putc.o ABSOLUTE
    ../clib/microlib/stdio/streams.c         0x00000000   Number         0  stdout.o ABSOLUTE
    ../clib/microlib/stdlib/rand.c           0x00000000   Number         0  rand.o ABSOLUTE
    ../clib/microlib/stubs.s                 0x00000000   Number         0  iusefp.o ABSOLUTE
    ../fplib/microlib/d2f.c                  0x00000000   Number         0  d2f.o ABSOLUTE
    ../fplib/microlib/f2d.c                  0x00000000   Number         0  f2d.o ABSOLUTE
    ../fplib/microlib/fpadd.c                0x00000000   Number         0  dadd.o ABSOLUTE
    ../fplib/microlib/fpdiv.c                0x00000000   Number         0  ddiv.o ABSOLUTE
    ../fplib/microlib/fpepilogue.c           0x00000000   Number         0  fepilogue.o ABSOLUTE
    ../fplib/microlib/fpepilogue.c           0x00000000   Number         0  depilogue.o ABSOLUTE
    ../fplib/microlib/fpfix.c                0x00000000   Number         0  dfixi.o ABSOLUTE
    ../fplib/microlib/fpfix.c                0x00000000   Number         0  dfixul.o ABSOLUTE
    ../fplib/microlib/fpfix.c                0x00000000   Number         0  dfixl.o ABSOLUTE
    ../fplib/microlib/fpflt.c                0x00000000   Number         0  dfltl.o ABSOLUTE
    ../fplib/microlib/fpflt.c                0x00000000   Number         0  dflti.o ABSOLUTE
    ../fplib/microlib/fpflt.c                0x00000000   Number         0  dfltui.o ABSOLUTE
    ../fplib/microlib/fpmul.c                0x00000000   Number         0  dmul.o ABSOLUTE
    ../fplib/microlib/fpneg.c                0x00000000   Number         0  dneg.o ABSOLUTE
    ../fplib/microlib/fpsqrt.c               0x00000000   Number         0  dsqrt.o ABSOLUTE
    ../mathlib/cos.c                         0x00000000   Number         0  cos_x.o ABSOLUTE
    ../mathlib/cos.c                         0x00000000   Number         0  cos.o ABSOLUTE
    ../mathlib/cos_i.c                       0x00000000   Number         0  cos_i.o ABSOLUTE
    ../mathlib/dunder.c                      0x00000000   Number         0  dunder.o ABSOLUTE
    ../mathlib/fabs.c                        0x00000000   Number         0  fabs.o ABSOLUTE
    ../mathlib/fpclassify.c                  0x00000000   Number         0  fpclassify.o ABSOLUTE
    ../mathlib/log.c                         0x00000000   Number         0  log.o ABSOLUTE
    ../mathlib/log.c                         0x00000000   Number         0  log_x.o ABSOLUTE
    ../mathlib/poly.c                        0x00000000   Number         0  poly.o ABSOLUTE
    ../mathlib/qnan.c                        0x00000000   Number         0  qnan.o ABSOLUTE
    ../mathlib/rred.c                        0x00000000   Number         0  rred.o ABSOLUTE
    ../mathlib/sin_i.c                       0x00000000   Number         0  sin_i_x.o ABSOLUTE
    ../mathlib/sin_i.c                       0x00000000   Number         0  sin_i.o ABSOLUTE
    ../mathlib/sqrt.c                        0x00000000   Number         0  sqrt_x.o ABSOLUTE
    ../mathlib/sqrt.c                        0x00000000   Number         0  sqrt.o ABSOLUTE
    ..\Drivers\STM32F4xx_HAL_Driver\Src\stm32f4xx_hal.c 0x00000000   Number         0  stm32f4xx_hal.o ABSOLUTE
    ..\Drivers\STM32F4xx_HAL_Driver\Src\stm32f4xx_hal_cortex.c 0x00000000   Number         0  stm32f4xx_hal_cortex.o ABSOLUTE
    ..\Drivers\STM32F4xx_HAL_Driver\Src\stm32f4xx_hal_dma.c 0x00000000   Number         0  stm32f4xx_hal_dma.o ABSOLUTE
    ..\Drivers\STM32F4xx_HAL_Driver\Src\stm32f4xx_hal_dma_ex.c 0x00000000   Number         0  stm32f4xx_hal_dma_ex.o ABSOLUTE
    ..\Drivers\STM32F4xx_HAL_Driver\Src\stm32f4xx_hal_flash.c 0x00000000   Number         0  stm32f4xx_hal_flash.o ABSOLUTE
    ..\Drivers\STM32F4xx_HAL_Driver\Src\stm32f4xx_hal_flash_ex.c 0x00000000   Number         0  stm32f4xx_hal_flash_ex.o ABSOLUTE
    ..\Drivers\STM32F4xx_HAL_Driver\Src\stm32f4xx_hal_flash_ramfunc.c 0x00000000   Number         0  stm32f4xx_hal_flash_ramfunc.o ABSOLUTE
    ..\Drivers\STM32F4xx_HAL_Driver\Src\stm32f4xx_hal_gpio.c 0x00000000   Number         0  stm32f4xx_hal_gpio.o ABSOLUTE
    ..\Drivers\STM32F4xx_HAL_Driver\Src\stm32f4xx_hal_i2c.c 0x00000000   Number         0  stm32f4xx_hal_i2c.o ABSOLUTE
    ..\Drivers\STM32F4xx_HAL_Driver\Src\stm32f4xx_hal_i2c_ex.c 0x00000000   Number         0  stm32f4xx_hal_i2c_ex.o ABSOLUTE
    ..\Drivers\STM32F4xx_HAL_Driver\Src\stm32f4xx_hal_pwr.c 0x00000000   Number         0  stm32f4xx_hal_pwr.o ABSOLUTE
    ..\Drivers\STM32F4xx_HAL_Driver\Src\stm32f4xx_hal_pwr_ex.c 0x00000000   Number         0  stm32f4xx_hal_pwr_ex.o ABSOLUTE
    ..\Drivers\STM32F4xx_HAL_Driver\Src\stm32f4xx_hal_rcc.c 0x00000000   Number         0  stm32f4xx_hal_rcc.o ABSOLUTE
    ..\Drivers\STM32F4xx_HAL_Driver\Src\stm32f4xx_hal_rcc_ex.c 0x00000000   Number         0  stm32f4xx_hal_rcc_ex.o ABSOLUTE
    ..\Drivers\STM32F4xx_HAL_Driver\Src\stm32f4xx_hal_spi.c 0x00000000   Number         0  stm32f4xx_hal_spi.o ABSOLUTE
    ..\Drivers\STM32F4xx_HAL_Driver\Src\stm32f4xx_hal_tim.c 0x00000000   Number         0  stm32f4xx_hal_tim.o ABSOLUTE
    ..\Drivers\STM32F4xx_HAL_Driver\Src\stm32f4xx_hal_tim_ex.c 0x00000000   Number         0  stm32f4xx_hal_tim_ex.o ABSOLUTE
    ..\Drivers\STM32F4xx_HAL_Driver\Src\stm32f4xx_hal_uart.c 0x00000000   Number         0  stm32f4xx_hal_uart.o ABSOLUTE
    ..\Src\bp_filter.c                       0x00000000   Number         0  bp_filter.o ABSOLUTE
    ..\Src\bphero_uwb.c                      0x00000000   Number         0  bphero_uwb.o ABSOLUTE
    ..\Src\main.c                            0x00000000   Number         0  main.o ABSOLUTE
    ..\Src\rx_main.c                         0x00000000   Number         0  rx_main.o ABSOLUTE
    ..\Src\stm32f4xx_hal_msp.c               0x00000000   Number         0  stm32f4xx_hal_msp.o ABSOLUTE
    ..\Src\stm32f4xx_it.c                    0x00000000   Number         0  stm32f4xx_it.o ABSOLUTE
    ..\Src\tx_main.c                         0x00000000   Number         0  tx_main.o ABSOLUTE
    ..\\Src\\bphero_uwb.c                    0x00000000   Number         0  bphero_uwb.o ABSOLUTE
    ..\\Src\\rx_main.c                       0x00000000   Number         0  rx_main.o ABSOLUTE
    ..\\Src\\tx_main.c                       0x00000000   Number         0  tx_main.o ABSOLUTE
    ..\\Src\system_stm32f4xx.c               0x00000000   Number         0  system_stm32f4xx.o ABSOLUTE
    cdcmple.s                                0x00000000   Number         0  cdcmple.o ABSOLUTE
    cdrcmple.s                               0x00000000   Number         0  cdrcmple.o ABSOLUTE
    dc.s                                     0x00000000   Number         0  dc.o ABSOLUTE
    decadriver\\deca_device.c                0x00000000   Number         0  deca_device.o ABSOLUTE
    decadriver\\dwm1000_timestamp.c          0x00000000   Number         0  dwm1000_timestamp.o ABSOLUTE
    decadriver\deca_device.c                 0x00000000   Number         0  deca_device.o ABSOLUTE
    decadriver\deca_params_init.c            0x00000000   Number         0  deca_params_init.o ABSOLUTE
    decadriver\deca_range_tables.c           0x00000000   Number         0  deca_range_tables.o ABSOLUTE
    decadriver\dwm1000_timestamp.c           0x00000000   Number         0  dwm1000_timestamp.o ABSOLUTE
    handlers.s                               0x00000000   Number         0  handlers.o ABSOLUTE
    init.s                                   0x00000000   Number         0  init.o ABSOLUTE
    kalman\kalman.c                          0x00000000   Number         0  kalman.o ABSOLUTE
    kalman\matrix.c                          0x00000000   Number         0  matrix.o ABSOLUTE
    platform\\deca_mutex.c                   0x00000000   Number         0  deca_mutex.o ABSOLUTE
    platform\\deca_sleep.c                   0x00000000   Number         0  deca_sleep.o ABSOLUTE
    platform\\deca_spi.c                     0x00000000   Number         0  deca_spi.o ABSOLUTE
    platform\\lcd_oled.c                     0x00000000   Number         0  lcd_oled.o ABSOLUTE
    platform\\port.c                         0x00000000   Number         0  port.o ABSOLUTE
    platform\\syscalls.c                     0x00000000   Number         0  syscalls.o ABSOLUTE
    platform\deca_mutex.c                    0x00000000   Number         0  deca_mutex.o ABSOLUTE
    platform\deca_sleep.c                    0x00000000   Number         0  deca_sleep.o ABSOLUTE
    platform\deca_spi.c                      0x00000000   Number         0  deca_spi.o ABSOLUTE
    platform\lcd_oled.c                      0x00000000   Number         0  lcd_oled.o ABSOLUTE
    platform\port.c                          0x00000000   Number         0  port.o ABSOLUTE
    platform\syscalls.c                      0x00000000   Number         0  syscalls.o ABSOLUTE
    startup_stm32f401xc.s                    0x00000000   Number         0  startup_stm32f401xc.o ABSOLUTE
    RESET                                    0x08000000   Section      404  startup_stm32f401xc.o(RESET)
    .ARM.Collect$$$$00000000                 0x08000194   Section        0  entry.o(.ARM.Collect$$$$00000000)
    .ARM.Collect$$$$00000001                 0x08000194   Section        4  entry2.o(.ARM.Collect$$$$00000001)
    .ARM.Collect$$$$00000004                 0x08000198   Section        4  entry5.o(.ARM.Collect$$$$00000004)
    .ARM.Collect$$$$00000008                 0x0800019c   Section        0  entry7b.o(.ARM.Collect$$$$00000008)
    .ARM.Collect$$$$0000000A                 0x0800019c   Section        0  entry8b.o(.ARM.Collect$$$$0000000A)
    .ARM.Collect$$$$0000000B                 0x0800019c   Section        8  entry9a.o(.ARM.Collect$$$$0000000B)
    .ARM.Collect$$$$0000000D                 0x080001a4   Section        0  entry10a.o(.ARM.Collect$$$$0000000D)
    .ARM.Collect$$$$0000000F                 0x080001a4   Section        0  entry11a.o(.ARM.Collect$$$$0000000F)
    .ARM.Collect$$$$00002712                 0x080001a4   Section        4  entry2.o(.ARM.Collect$$$$00002712)
    __lit__00000000                          0x080001a4   Data           4  entry2.o(.ARM.Collect$$$$00002712)
    .text                                    0x080001a8   Section       36  startup_stm32f401xc.o(.text)
    $v0                                      0x080001a8   Number         0  startup_stm32f401xc.o(.text)
    .text                                    0x080001cc   Section        0  uldiv.o(.text)
    .text                                    0x0800022e   Section        0  dadd.o(.text)
    .text                                    0x0800037c   Section        0  dmul.o(.text)
    .text                                    0x08000460   Section        0  ddiv.o(.text)
    .text                                    0x0800053e   Section        0  dfltui.o(.text)
    .text                                    0x08000558   Section        0  dfltl.o(.text)
    .text                                    0x08000580   Section        0  dfixi.o(.text)
    .text                                    0x080005be   Section        0  dfixl.o(.text)
    .text                                    0x08000608   Section        0  f2d.o(.text)
    .text                                    0x08000630   Section       48  cdcmple.o(.text)
    .text                                    0x08000660   Section        0  d2f.o(.text)
    .text                                    0x08000698   Section        0  uidiv.o(.text)
    .text                                    0x080006c4   Section        0  llshl.o(.text)
    .text                                    0x080006e2   Section        0  llushr.o(.text)
    .text                                    0x08000702   Section        0  llsshr.o(.text)
    .text                                    0x08000726   Section        0  fepilogue.o(.text)
    .text                                    0x08000726   Section        0  iusefp.o(.text)
    .text                                    0x08000794   Section        0  depilogue.o(.text)
    .text                                    0x0800084e   Section        0  dfixul.o(.text)
    .text                                    0x08000880   Section       48  cdrcmple.o(.text)
    .text                                    0x080008b0   Section       36  init.o(.text)
    .text                                    0x080008d4   Section        0  __dczerorl2.o(.text)
    i.BPhero_Distance_Measure_Specail_TAG    0x0800092c   Section        0  tx_main.o(i.BPhero_Distance_Measure_Specail_TAG)
    i.BPhero_UWB_Init                        0x080009c8   Section        0  bphero_uwb.o(i.BPhero_UWB_Init)
    i.BPhero_UWB_Message_Init                0x08000aa4   Section        0  bphero_uwb.o(i.BPhero_UWB_Message_Init)
    i.BusFault_Handler                       0x08000ad4   Section        0  stm32f4xx_it.o(i.BusFault_Handler)
    i.DebugMon_Handler                       0x08000ad6   Section        0  stm32f4xx_it.o(i.DebugMon_Handler)
    i.EXTI0_IRQHandler                       0x08000ad8   Section        0  stm32f4xx_it.o(i.EXTI0_IRQHandler)
    i.EXTI9_5_IRQHandler                     0x08000afc   Section        0  stm32f4xx_it.o(i.EXTI9_5_IRQHandler)
    i.EXTI_GetITEnStatus                     0x08000b24   Section        0  port.o(i.EXTI_GetITEnStatus)
    i.Gauss_Jordan                           0x08000b28   Section        0  matrix.o(i.Gauss_Jordan)
    i.HAL_Delay                              0x08000d78   Section        0  stm32f4xx_hal.o(i.HAL_Delay)
    i.HAL_GPIO_EXTI_Callback                 0x08000d9c   Section        0  stm32f4xx_hal_gpio.o(i.HAL_GPIO_EXTI_Callback)
    i.HAL_GPIO_EXTI_IRQHandler               0x08000da0   Section        0  stm32f4xx_hal_gpio.o(i.HAL_GPIO_EXTI_IRQHandler)
    i.HAL_GPIO_Init                          0x08000db8   Section        0  stm32f4xx_hal_gpio.o(i.HAL_GPIO_Init)
    i.HAL_GPIO_TogglePin                     0x08000f40   Section        0  stm32f4xx_hal_gpio.o(i.HAL_GPIO_TogglePin)
    i.HAL_GPIO_WritePin                      0x08000f48   Section        0  stm32f4xx_hal_gpio.o(i.HAL_GPIO_WritePin)
    i.HAL_GetTick                            0x08000f54   Section        0  stm32f4xx_hal.o(i.HAL_GetTick)
    i.HAL_I2C_Init                           0x08000f60   Section        0  stm32f4xx_hal_i2c.o(i.HAL_I2C_Init)
    i.HAL_I2C_MspInit                        0x08001068   Section        0  stm32f4xx_hal_msp.o(i.HAL_I2C_MspInit)
    i.HAL_IncTick                            0x080010b4   Section        0  stm32f4xx_hal.o(i.HAL_IncTick)
    i.HAL_Init                               0x080010c4   Section        0  stm32f4xx_hal.o(i.HAL_Init)
    i.HAL_InitTick                           0x080010f8   Section        0  stm32f4xx_hal.o(i.HAL_InitTick)
    i.HAL_MspInit                            0x08001138   Section        0  stm32f4xx_hal_msp.o(i.HAL_MspInit)
    i.HAL_NVIC_EnableIRQ                     0x080011bc   Section        0  stm32f4xx_hal_cortex.o(i.HAL_NVIC_EnableIRQ)
    i.HAL_NVIC_SetPriority                   0x080011d4   Section        0  stm32f4xx_hal_cortex.o(i.HAL_NVIC_SetPriority)
    i.HAL_NVIC_SetPriorityGrouping           0x08001214   Section        0  stm32f4xx_hal_cortex.o(i.HAL_NVIC_SetPriorityGrouping)
    i.HAL_RCC_CSSCallback                    0x08001238   Section        0  stm32f4xx_hal_rcc.o(i.HAL_RCC_CSSCallback)
    i.HAL_RCC_ClockConfig                    0x0800123c   Section        0  stm32f4xx_hal_rcc.o(i.HAL_RCC_ClockConfig)
    i.HAL_RCC_EnableCSS                      0x0800136c   Section        0  stm32f4xx_hal_rcc.o(i.HAL_RCC_EnableCSS)
    i.HAL_RCC_GetHCLKFreq                    0x08001378   Section        0  stm32f4xx_hal_rcc.o(i.HAL_RCC_GetHCLKFreq)
    i.HAL_RCC_GetPCLK1Freq                   0x08001384   Section        0  stm32f4xx_hal_rcc.o(i.HAL_RCC_GetPCLK1Freq)
    i.HAL_RCC_GetPCLK2Freq                   0x080013a4   Section        0  stm32f4xx_hal_rcc.o(i.HAL_RCC_GetPCLK2Freq)
    i.HAL_RCC_GetSysClockFreq                0x080013c4   Section        0  stm32f4xx_hal_rcc.o(i.HAL_RCC_GetSysClockFreq)
    i.HAL_RCC_NMI_IRQHandler                 0x08001410   Section        0  stm32f4xx_hal_rcc.o(i.HAL_RCC_NMI_IRQHandler)
    i.HAL_RCC_OscConfig                      0x0800142c   Section        0  stm32f4xx_hal_rcc.o(i.HAL_RCC_OscConfig)
    i.HAL_SPI_Init                           0x08001748   Section        0  stm32f4xx_hal_spi.o(i.HAL_SPI_Init)
    i.HAL_SPI_MspInit                        0x080017c8   Section        0  stm32f4xx_hal_msp.o(i.HAL_SPI_MspInit)
    i.HAL_SPI_Receive                        0x08001810   Section        0  stm32f4xx_hal_spi.o(i.HAL_SPI_Receive)
    i.HAL_SPI_Transmit                       0x08001960   Section        0  stm32f4xx_hal_spi.o(i.HAL_SPI_Transmit)
    i.HAL_SPI_TransmitReceive                0x08001ac8   Section        0  stm32f4xx_hal_spi.o(i.HAL_SPI_TransmitReceive)
    i.HAL_SYSTICK_CLKSourceConfig            0x08001ca0   Section        0  stm32f4xx_hal_cortex.o(i.HAL_SYSTICK_CLKSourceConfig)
    i.HAL_SYSTICK_Callback                   0x08001cb8   Section        0  stm32f4xx_hal_cortex.o(i.HAL_SYSTICK_Callback)
    i.HAL_SYSTICK_Config                     0x08001cba   Section        0  stm32f4xx_hal_cortex.o(i.HAL_SYSTICK_Config)
    i.HAL_SYSTICK_IRQHandler                 0x08001ce2   Section        0  stm32f4xx_hal_cortex.o(i.HAL_SYSTICK_IRQHandler)
    i.HAL_TIMEx_BreakCallback                0x08001cea   Section        0  stm32f4xx_hal_tim_ex.o(i.HAL_TIMEx_BreakCallback)
    i.HAL_TIMEx_CommutationCallback          0x08001cec   Section        0  stm32f4xx_hal_tim_ex.o(i.HAL_TIMEx_CommutationCallback)
    i.HAL_TIM_IC_CaptureCallback             0x08001cee   Section        0  stm32f4xx_hal_tim.o(i.HAL_TIM_IC_CaptureCallback)
    i.HAL_TIM_IRQHandler                     0x08001cf0   Section        0  stm32f4xx_hal_tim.o(i.HAL_TIM_IRQHandler)
    i.HAL_TIM_OC_DelayElapsedCallback        0x08001e56   Section        0  stm32f4xx_hal_tim.o(i.HAL_TIM_OC_DelayElapsedCallback)
    i.HAL_TIM_PWM_PulseFinishedCallback      0x08001e58   Section        0  stm32f4xx_hal_tim.o(i.HAL_TIM_PWM_PulseFinishedCallback)
    i.HAL_TIM_PeriodElapsedCallback          0x08001e5c   Section        0  tx_main.o(i.HAL_TIM_PeriodElapsedCallback)
    i.HAL_TIM_TriggerCallback                0x08001e94   Section        0  stm32f4xx_hal_tim.o(i.HAL_TIM_TriggerCallback)
    i.HAL_UART_Init                          0x08001e96   Section        0  stm32f4xx_hal_uart.o(i.HAL_UART_Init)
    i.HAL_UART_MspInit                       0x08001ef8   Section        0  stm32f4xx_hal_msp.o(i.HAL_UART_MspInit)
    i.HAL_UART_Transmit                      0x08001f44   Section        0  stm32f4xx_hal_uart.o(i.HAL_UART_Transmit)
    i.HardFault_Handler                      0x08001ffe   Section        0  stm32f4xx_it.o(i.HardFault_Handler)
    i.KalMan                                 0x08002000   Section        0  kalman.o(i.KalMan)
    i.KalMan_Init                            0x08002184   Section        0  kalman.o(i.KalMan_Init)
    i.MX_GPIO_Init                           0x080021d4   Section        0  port.o(i.MX_GPIO_Init)
    MX_GPIO_Init                             0x080021d5   Thumb Code   162  port.o(i.MX_GPIO_Init)
    i.MX_I2C1_Init                           0x08002288   Section        0  port.o(i.MX_I2C1_Init)
    i.MX_SPI1_Init                           0x080022dc   Section        0  port.o(i.MX_SPI1_Init)
    i.MX_SPI1_Init_Fast                      0x08002338   Section        0  port.o(i.MX_SPI1_Init_Fast)
    i.MX_USART1_UART_Init                    0x0800237c   Section        0  port.o(i.MX_USART1_UART_Init)
    MX_USART1_UART_Init                      0x0800237d   Thumb Code    80  port.o(i.MX_USART1_UART_Init)
    i.MatrixAdd                              0x080023f4   Section        0  matrix.o(i.MatrixAdd)
    i.MatrixCal1                             0x08002426   Section        0  matrix.o(i.MatrixCal1)
    i.MatrixCal2                             0x0800246c   Section        0  matrix.o(i.MatrixCal2)
    i.MatrixMinus                            0x080024b0   Section        0  matrix.o(i.MatrixMinus)
    i.MatrixMul                              0x080024e4   Section        0  matrix.o(i.MatrixMul)
    i.MatrixTrans                            0x0800254c   Section        0  matrix.o(i.MatrixTrans)
    i.MemManage_Handler                      0x08002582   Section        0  stm32f4xx_it.o(i.MemManage_Handler)
    i.NMI_Handler                            0x08002584   Section        0  stm32f4xx_it.o(i.NMI_Handler)
    i.NVIC_Configuration                     0x08002588   Section        0  port.o(i.NVIC_Configuration)
    i.NVIC_SetPriority                       0x08002604   Section        0  stm32f4xx_hal_cortex.o(i.NVIC_SetPriority)
    NVIC_SetPriority                         0x08002605   Thumb Code    32  stm32f4xx_hal_cortex.o(i.NVIC_SetPriority)
    i.NVIC_SetPriority                       0x08002624   Section        0  port.o(i.NVIC_SetPriority)
    NVIC_SetPriority                         0x08002625   Thumb Code    32  port.o(i.NVIC_SetPriority)
    i.OLED_Clear                             0x08002644   Section        0  lcd_oled.o(i.OLED_Clear)
    i.OLED_Init                              0x08002680   Section        0  lcd_oled.o(i.OLED_Init)
    i.OLED_Set_Pos                           0x08002718   Section        0  lcd_oled.o(i.OLED_Set_Pos)
    i.OLED_ShowChar                          0x08002744   Section        0  lcd_oled.o(i.OLED_ShowChar)
    i.OLED_ShowString                        0x080027a8   Section        0  lcd_oled.o(i.OLED_ShowString)
    i.OLED_WR_Byte                           0x080027dc   Section        0  lcd_oled.o(i.OLED_WR_Byte)
    i.PendSV_Handler                         0x08002860   Section        0  stm32f4xx_it.o(i.PendSV_Handler)
    i.SPI_CheckFlag_BSY                      0x08002862   Section        0  stm32f4xx_hal_spi.o(i.SPI_CheckFlag_BSY)
    SPI_CheckFlag_BSY                        0x08002863   Thumb Code    32  stm32f4xx_hal_spi.o(i.SPI_CheckFlag_BSY)
    i.SPI_WaitFlagStateUntilTimeout          0x08002882   Section        0  stm32f4xx_hal_spi.o(i.SPI_WaitFlagStateUntilTimeout)
    SPI_WaitFlagStateUntilTimeout            0x08002883   Thumb Code   150  stm32f4xx_hal_spi.o(i.SPI_WaitFlagStateUntilTimeout)
    i.SVC_Handler                            0x08002918   Section        0  stm32f4xx_it.o(i.SVC_Handler)
    i.Simple_Rx_Callback                     0x0800291c   Section        0  rx_main.o(i.Simple_Rx_Callback)
    i.SysTick_Configuration                  0x08002c1c   Section        0  port.o(i.SysTick_Configuration)
    i.SysTick_Handler                        0x08002c5c   Section        0  stm32f4xx_it.o(i.SysTick_Handler)
    i.SystemClock_Config                     0x08002c74   Section        0  port.o(i.SystemClock_Config)
    i.SystemInit                             0x08002d34   Section        0  system_stm32f4xx.o(i.SystemInit)
    i.TIM3_IRQHandler                        0x08002d88   Section        0  stm32f4xx_it.o(i.TIM3_IRQHandler)
    i.UART_SetConfig                         0x08002d94   Section        0  stm32f4xx_hal_uart.o(i.UART_SetConfig)
    UART_SetConfig                           0x08002d95   Thumb Code   676  stm32f4xx_hal_uart.o(i.UART_SetConfig)
    i.UART_WaitOnFlagUntilTimeout            0x08003040   Section        0  stm32f4xx_hal_uart.o(i.UART_WaitOnFlagUntilTimeout)
    UART_WaitOnFlagUntilTimeout              0x08003041   Thumb Code   100  stm32f4xx_hal_uart.o(i.UART_WaitOnFlagUntilTimeout)
    i.UsageFault_Handler                     0x080030a4   Section        0  stm32f4xx_it.o(i.UsageFault_Handler)
    i._Error_Handler                         0x080030a6   Section        0  main.o(i._Error_Handler)
    i.__0printf                              0x080030a8   Section        0  printfa.o(i.__0printf)
    i.__0sprintf                             0x080030c8   Section        0  printfa.o(i.__0sprintf)
    i.__scatterload_copy                     0x080030f0   Section       14  handlers.o(i.__scatterload_copy)
    i.__scatterload_null                     0x080030fe   Section        2  handlers.o(i.__scatterload_null)
    i.__scatterload_zeroinit                 0x08003100   Section       14  handlers.o(i.__scatterload_zeroinit)
    i._dwt_configlde                         0x0800310e   Section        0  deca_device.o(i._dwt_configlde)
    i._dwt_enableclocks                      0x0800313e   Section        0  deca_device.o(i._dwt_enableclocks)
    i._dwt_loaducodefromrom                  0x08003200   Section        0  deca_device.o(i._dwt_loaducodefromrom)
    i._dwt_otpread                           0x08003234   Section        0  deca_device.o(i._dwt_otpread)
    i._fp_digits                             0x0800327c   Section        0  printfa.o(i._fp_digits)
    _fp_digits                               0x0800327d   Thumb Code   366  printfa.o(i._fp_digits)
    i._printf_core                           0x08003400   Section        0  printfa.o(i._printf_core)
    _printf_core                             0x08003401   Thumb Code  1744  printfa.o(i._printf_core)
    i._printf_post_padding                   0x08003adc   Section        0  printfa.o(i._printf_post_padding)
    _printf_post_padding                     0x08003add   Thumb Code    36  printfa.o(i._printf_post_padding)
    i._printf_pre_padding                    0x08003b00   Section        0  printfa.o(i._printf_pre_padding)
    _printf_pre_padding                      0x08003b01   Thumb Code    46  printfa.o(i._printf_pre_padding)
    i._sputc                                 0x08003b2e   Section        0  printfa.o(i._sputc)
    _sputc                                   0x08003b2f   Thumb Code    10  printfa.o(i._sputc)
    i.bphero_setcallbacks                    0x08003b38   Section        0  port.o(i.bphero_setcallbacks)
    i.deca_sleep                             0x08003b44   Section        0  deca_sleep.o(i.deca_sleep)
    i.decamutexoff                           0x08003b5c   Section        0  deca_mutex.o(i.decamutexoff)
    i.decamutexon                            0x08003b6c   Section        0  deca_mutex.o(i.decamutexon)
    i.dwt_SetTxPower                         0x08003b84   Section        0  deca_device.o(i.dwt_SetTxPower)
    i.dwt_configure                          0x08003b94   Section        0  deca_device.o(i.dwt_configure)
    i.dwt_configuretxrf                      0x08003dac   Section        0  deca_device.o(i.dwt_configuretxrf)
    i.dwt_enable_pa                          0x08003dca   Section        0  deca_device.o(i.dwt_enable_pa)
    i.dwt_enableframefilter                  0x08003df0   Section        0  deca_device.o(i.dwt_enableframefilter)
    i.dwt_entersleepaftertx                  0x08003e30   Section        0  deca_device.o(i.dwt_entersleepaftertx)
    i.dwt_forcetrxoff                        0x08003e54   Section        0  deca_device.o(i.dwt_forcetrxoff)
    i.dwt_getrangebias                       0x08003eb4   Section        0  deca_range_tables.o(i.dwt_getrangebias)
    i.dwt_initialise                         0x08003fa4   Section        0  deca_device.o(i.dwt_initialise)
    i.dwt_read16bitoffsetreg                 0x08004080   Section        0  deca_device.o(i.dwt_read16bitoffsetreg)
    i.dwt_read32bitoffsetreg                 0x080040a4   Section        0  deca_device.o(i.dwt_read32bitoffsetreg)
    i.dwt_readdevid                          0x080040c8   Section        0  deca_device.o(i.dwt_readdevid)
    i.dwt_readfromdevice                     0x080040d0   Section        0  deca_device.o(i.dwt_readfromdevice)
    i.dwt_readrxdata                         0x0800410a   Section        0  deca_device.o(i.dwt_readrxdata)
    i.dwt_readrxtimestamp                    0x0800411c   Section        0  deca_device.o(i.dwt_readrxtimestamp)
    i.dwt_readtxtimestamp                    0x08004128   Section        0  deca_device.o(i.dwt_readtxtimestamp)
    i.dwt_rxenable                           0x08004134   Section        0  deca_device.o(i.dwt_rxenable)
    i.dwt_setaddress16                       0x08004182   Section        0  deca_device.o(i.dwt_setaddress16)
    i.dwt_setinterrupt                       0x0800418c   Section        0  deca_device.o(i.dwt_setinterrupt)
    i.dwt_setleds                            0x080041bc   Section        0  deca_device.o(i.dwt_setleds)
    i.dwt_setpanid                           0x08004274   Section        0  deca_device.o(i.dwt_setpanid)
    i.dwt_setrxantennadelay                  0x0800427e   Section        0  deca_device.o(i.dwt_setrxantennadelay)
    i.dwt_setrxtimeout                       0x0800428c   Section        0  deca_device.o(i.dwt_setrxtimeout)
    i.dwt_settxantennadelay                  0x080042e4   Section        0  deca_device.o(i.dwt_settxantennadelay)
    i.dwt_starttx                            0x080042f0   Section        0  deca_device.o(i.dwt_starttx)
    i.dwt_syncrxbufptrs                      0x08004380   Section        0  deca_device.o(i.dwt_syncrxbufptrs)
    i.dwt_write16bitoffsetreg                0x080043b4   Section        0  deca_device.o(i.dwt_write16bitoffsetreg)
    i.dwt_write32bitoffsetreg                0x080043ce   Section        0  deca_device.o(i.dwt_write32bitoffsetreg)
    i.dwt_writetodevice                      0x080043ec   Section        0  deca_device.o(i.dwt_writetodevice)
    i.dwt_writetxdata                        0x0800442a   Section        0  deca_device.o(i.dwt_writetxdata)
    i.dwt_writetxfctrl                       0x0800444c   Section        0  deca_device.o(i.dwt_writetxfctrl)
    i.dwt_xtaltrim                           0x08004468   Section        0  deca_device.o(i.dwt_xtaltrim)
    i.final_msg_get_ts                       0x08004498   Section        0  dwm1000_timestamp.o(i.final_msg_get_ts)
    i.fputc                                  0x080044b4   Section        0  port.o(i.fputc)
    i.get_rx_timestamp_u64                   0x080044d0   Section        0  dwm1000_timestamp.o(i.get_rx_timestamp_u64)
    i.get_tx_timestamp_u64                   0x080044f6   Section        0  dwm1000_timestamp.o(i.get_tx_timestamp_u64)
    i.main                                   0x0800451c   Section        0  main.o(i.main)
    i.peripherals_init                       0x08004532   Section        0  port.o(i.peripherals_init)
    i.portGetTickCnt                         0x08004560   Section        0  port.o(i.portGetTickCnt)
    i.readfromspi_serial                     0x0800456c   Section        0  deca_spi.o(i.readfromspi_serial)
    i.reset_DW1000                           0x080045c4   Section        0  port.o(i.reset_DW1000)
    i.rx_main                                0x08004614   Section        0  rx_main.o(i.rx_main)
    i.spi_set_rate_high                      0x08004694   Section        0  port.o(i.spi_set_rate_high)
    i.spi_set_rate_low                       0x08004698   Section        0  port.o(i.spi_set_rate_low)
    i.writetospi_serial                      0x0800469c   Section        0  deca_spi.o(i.writetospi_serial)
    .constdata                               0x080046f4   Section       16  system_stm32f4xx.o(.constdata)
    .constdata                               0x08004704   Section        8  system_stm32f4xx.o(.constdata)
    .constdata                               0x0800470c   Section     1520  lcd_oled.o(.constdata)
    .constdata                               0x08004cfc   Section        8  deca_params_init.o(.constdata)
    .constdata                               0x08004d04   Section       24  deca_params_init.o(.constdata)
    .constdata                               0x08004d1c   Section       30  deca_params_init.o(.constdata)
    .constdata                               0x08004d3a   Section        2  deca_params_init.o(.constdata)
    .constdata                               0x08004d3c   Section        8  deca_params_init.o(.constdata)
    .constdata                               0x08004d44   Section        3  deca_params_init.o(.constdata)
    .constdata                               0x08004d48   Section       12  deca_params_init.o(.constdata)
    .constdata                               0x08004d54   Section        4  deca_params_init.o(.constdata)
    .constdata                               0x08004d58   Section       32  deca_params_init.o(.constdata)
    .constdata                               0x08004d78   Section       50  deca_params_init.o(.constdata)
    .constdata                               0x08004daa   Section      522  deca_range_tables.o(.constdata)
    .conststring                             0x08004fb4   Section      274  port.o(.conststring)
    .data                                    0x20000000   Section        4  stm32f4xx_it.o(.data)
    .data                                    0x20000008   Section       40  tx_main.o(.data)
    distance_seqnum                          0x20000008   Data           1  tx_main.o(.data)
    msg_f_recv                               0x20000010   Data           4  tx_main.o(.data)
    poll_tx_ts                               0x20000018   Data           8  tx_main.o(.data)
    resp_rx_ts                               0x20000020   Data           8  tx_main.o(.data)
    final_tx_ts                              0x20000028   Data           8  tx_main.o(.data)
    .data                                    0x20000030   Section       48  rx_main.o(.data)
    msg_f                                    0x20000030   Data           4  rx_main.o(.data)
    poll_rx_ts                               0x20000038   Data           8  rx_main.o(.data)
    resp_tx_ts                               0x20000040   Data           8  rx_main.o(.data)
    final_rx_ts                              0x20000048   Data           8  rx_main.o(.data)
    tof                                      0x20000050   Data           8  rx_main.o(.data)
    distance                                 0x20000058   Data           8  rx_main.o(.data)
    .data                                    0x20000060   Section       15  bphero_uwb.o(.data)
    .data                                    0x20000070   Section        2  bphero_uwb.o(.data)
    .data                                    0x20000074   Section       12  stm32f4xx_hal.o(.data)
    .data                                    0x20000080   Section        4  system_stm32f4xx.o(.data)
    .data                                    0x20000084   Section      460  lcd_oled.o(.data)
    .data                                    0x20000250   Section        4  port.o(.data)
    .data                                    0x20000254   Section      132  kalman.o(.data)
    .data                                    0x200002d8   Section        4  stdout.o(.data)
    .bss                                     0x200002dc   Section       76  tx_main.o(.bss)
    .bss                                     0x20000328   Section       94  bphero_uwb.o(.bss)
    .bss                                     0x20000386   Section      127  bphero_uwb.o(.bss)
    .bss                                     0x20000408   Section      296  port.o(.bss)
    .bss                                     0x20000530   Section       60  deca_device.o(.bss)
    dw1000local                              0x20000530   Data          60  deca_device.o(.bss)
    .bss                                     0x2000056c   Section       48  kalman.o(.bss)
    STACK                                    0x200005a0   Section     1024  startup_stm32f401xc.o(STACK)

    Global Symbols

    Symbol Name                              Value     Ov Type        Size  Object(Section)

    BuildAttributes$$THM_ISAv4$E$P$D$K$B$S$7EM$VFPi3$EXTD16$VFPS$VFMA$PE$A:L22UL41UL21$X:L11$S22US41US21$IEEE1$IW$USESV6$~STKCKD$USESV7$~SHL$OTIME$ROPI$IEEEX$EBA8$MICROLIB$REQ8$PRES8$EABIv2 0x00000000   Number         0  anon$$obj.o ABSOLUTE
    __ARM_use_no_argv                        0x00000000   Number         0  main.o ABSOLUTE
    _printf_a                                0x00000000   Number         0  stubs.o ABSOLUTE
    _printf_c                                0x00000000   Number         0  stubs.o ABSOLUTE
    _printf_charcount                        0x00000000   Number         0  stubs.o ABSOLUTE
    _printf_d                                0x00000000   Number         0  stubs.o ABSOLUTE
    _printf_e                                0x00000000   Number         0  stubs.o ABSOLUTE
    _printf_f                                0x00000000   Number         0  stubs.o ABSOLUTE
    _printf_flags                            0x00000000   Number         0  stubs.o ABSOLUTE
    _printf_fp_dec                           0x00000000   Number         0  stubs.o ABSOLUTE
    _printf_fp_hex                           0x00000000   Number         0  stubs.o ABSOLUTE
    _printf_g                                0x00000000   Number         0  stubs.o ABSOLUTE
    _printf_i                                0x00000000   Number         0  stubs.o ABSOLUTE
    _printf_int_dec                          0x00000000   Number         0  stubs.o ABSOLUTE
    _printf_l                                0x00000000   Number         0  stubs.o ABSOLUTE
    _printf_lc                               0x00000000   Number         0  stubs.o ABSOLUTE
    _printf_ll                               0x00000000   Number         0  stubs.o ABSOLUTE
    _printf_lld                              0x00000000   Number         0  stubs.o ABSOLUTE
    _printf_lli                              0x00000000   Number         0  stubs.o ABSOLUTE
    _printf_llo                              0x00000000   Number         0  stubs.o ABSOLUTE
    _printf_llu                              0x00000000   Number         0  stubs.o ABSOLUTE
    _printf_llx                              0x00000000   Number         0  stubs.o ABSOLUTE
    _printf_longlong_dec                     0x00000000   Number         0  stubs.o ABSOLUTE
    _printf_longlong_hex                     0x00000000   Number         0  stubs.o ABSOLUTE
    _printf_longlong_oct                     0x00000000   Number         0  stubs.o ABSOLUTE
    _printf_ls                               0x00000000   Number         0  stubs.o ABSOLUTE
    _printf_mbtowc                           0x00000000   Number         0  stubs.o ABSOLUTE
    _printf_n                                0x00000000   Number         0  stubs.o ABSOLUTE
    _printf_o                                0x00000000   Number         0  stubs.o ABSOLUTE
    _printf_p                                0x00000000   Number         0  stubs.o ABSOLUTE
    _printf_percent                          0x00000000   Number         0  stubs.o ABSOLUTE
    _printf_pre_padding                      0x00000000   Number         0  stubs.o ABSOLUTE
    _printf_return_value                     0x00000000   Number         0  stubs.o ABSOLUTE
    _printf_s                                0x00000000   Number         0  stubs.o ABSOLUTE
    _printf_sizespec                         0x00000000   Number         0  stubs.o ABSOLUTE
    _printf_str                              0x00000000   Number         0  stubs.o ABSOLUTE
    _printf_truncate_signed                  0x00000000   Number         0  stubs.o ABSOLUTE
    _printf_truncate_unsigned                0x00000000   Number         0  stubs.o ABSOLUTE
    _printf_u                                0x00000000   Number         0  stubs.o ABSOLUTE
    _printf_wc                               0x00000000   Number         0  stubs.o ABSOLUTE
    _printf_wctomb                           0x00000000   Number         0  stubs.o ABSOLUTE
    _printf_widthprec                        0x00000000   Number         0  stubs.o ABSOLUTE
    _printf_x                                0x00000000   Number         0  stubs.o ABSOLUTE
    __cpp_initialize__aeabi_                  - Undefined Weak Reference
    __cxa_finalize                            - Undefined Weak Reference
    _clock_init                               - Undefined Weak Reference
    _microlib_exit                            - Undefined Weak Reference
    __Vectors_Size                           0x00000194   Number         0  startup_stm32f401xc.o ABSOLUTE
    __Vectors                                0x08000000   Data           4  startup_stm32f401xc.o(RESET)
    __Vectors_End                            0x08000194   Data           0  startup_stm32f401xc.o(RESET)
    __main                                   0x08000195   Thumb Code     0  entry.o(.ARM.Collect$$$$00000000)
    _main_stk                                0x08000195   Thumb Code     0  entry2.o(.ARM.Collect$$$$00000001)
    _main_scatterload                        0x08000199   Thumb Code     0  entry5.o(.ARM.Collect$$$$00000004)
    __main_after_scatterload                 0x0800019d   Thumb Code     0  entry5.o(.ARM.Collect$$$$00000004)
    _main_clock                              0x0800019d   Thumb Code     0  entry7b.o(.ARM.Collect$$$$00000008)
    _main_cpp_init                           0x0800019d   Thumb Code     0  entry8b.o(.ARM.Collect$$$$0000000A)
    _main_init                               0x0800019d   Thumb Code     0  entry9a.o(.ARM.Collect$$$$0000000B)
    __rt_final_cpp                           0x080001a5   Thumb Code     0  entry10a.o(.ARM.Collect$$$$0000000D)
    __rt_final_exit                          0x080001a5   Thumb Code     0  entry11a.o(.ARM.Collect$$$$0000000F)
    Reset_Handler                            0x080001a9   Thumb Code     8  startup_stm32f401xc.o(.text)
    ADC_IRQHandler                           0x080001c3   Thumb Code     0  startup_stm32f401xc.o(.text)
    DMA1_Stream0_IRQHandler                  0x080001c3   Thumb Code     0  startup_stm32f401xc.o(.text)
    DMA1_Stream1_IRQHandler                  0x080001c3   Thumb Code     0  startup_stm32f401xc.o(.text)
    DMA1_Stream2_IRQHandler                  0x080001c3   Thumb Code     0  startup_stm32f401xc.o(.text)
    DMA1_Stream3_IRQHandler                  0x080001c3   Thumb Code     0  startup_stm32f401xc.o(.text)
    DMA1_Stream4_IRQHandler                  0x080001c3   Thumb Code     0  startup_stm32f401xc.o(.text)
    DMA1_Stream5_IRQHandler                  0x080001c3   Thumb Code     0  startup_stm32f401xc.o(.text)
    DMA1_Stream6_IRQHandler                  0x080001c3   Thumb Code     0  startup_stm32f401xc.o(.text)
    DMA1_Stream7_IRQHandler                  0x080001c3   Thumb Code     0  startup_stm32f401xc.o(.text)
    DMA2_Stream0_IRQHandler                  0x080001c3   Thumb Code     0  startup_stm32f401xc.o(.text)
    DMA2_Stream1_IRQHandler                  0x080001c3   Thumb Code     0  startup_stm32f401xc.o(.text)
    DMA2_Stream2_IRQHandler                  0x080001c3   Thumb Code     0  startup_stm32f401xc.o(.text)
    DMA2_Stream3_IRQHandler                  0x080001c3   Thumb Code     0  startup_stm32f401xc.o(.text)
    DMA2_Stream4_IRQHandler                  0x080001c3   Thumb Code     0  startup_stm32f401xc.o(.text)
    DMA2_Stream5_IRQHandler                  0x080001c3   Thumb Code     0  startup_stm32f401xc.o(.text)
    DMA2_Stream6_IRQHandler                  0x080001c3   Thumb Code     0  startup_stm32f401xc.o(.text)
    DMA2_Stream7_IRQHandler                  0x080001c3   Thumb Code     0  startup_stm32f401xc.o(.text)
    EXTI15_10_IRQHandler                     0x080001c3   Thumb Code     0  startup_stm32f401xc.o(.text)
    EXTI1_IRQHandler                         0x080001c3   Thumb Code     0  startup_stm32f401xc.o(.text)
    EXTI2_IRQHandler                         0x080001c3   Thumb Code     0  startup_stm32f401xc.o(.text)
    EXTI3_IRQHandler                         0x080001c3   Thumb Code     0  startup_stm32f401xc.o(.text)
    EXTI4_IRQHandler                         0x080001c3   Thumb Code     0  startup_stm32f401xc.o(.text)
    FLASH_IRQHandler                         0x080001c3   Thumb Code     0  startup_stm32f401xc.o(.text)
    FPU_IRQHandler                           0x080001c3   Thumb Code     0  startup_stm32f401xc.o(.text)
    I2C1_ER_IRQHandler                       0x080001c3   Thumb Code     0  startup_stm32f401xc.o(.text)
    I2C1_EV_IRQHandler                       0x080001c3   Thumb Code     0  startup_stm32f401xc.o(.text)
    I2C2_ER_IRQHandler                       0x080001c3   Thumb Code     0  startup_stm32f401xc.o(.text)
    I2C2_EV_IRQHandler                       0x080001c3   Thumb Code     0  startup_stm32f401xc.o(.text)
    I2C3_ER_IRQHandler                       0x080001c3   Thumb Code     0  startup_stm32f401xc.o(.text)
    I2C3_EV_IRQHandler                       0x080001c3   Thumb Code     0  startup_stm32f401xc.o(.text)
    OTG_FS_IRQHandler                        0x080001c3   Thumb Code     0  startup_stm32f401xc.o(.text)
    OTG_FS_WKUP_IRQHandler                   0x080001c3   Thumb Code     0  startup_stm32f401xc.o(.text)
    PVD_IRQHandler                           0x080001c3   Thumb Code     0  startup_stm32f401xc.o(.text)
    RCC_IRQHandler                           0x080001c3   Thumb Code     0  startup_stm32f401xc.o(.text)
    RTC_Alarm_IRQHandler                     0x080001c3   Thumb Code     0  startup_stm32f401xc.o(.text)
    RTC_WKUP_IRQHandler                      0x080001c3   Thumb Code     0  startup_stm32f401xc.o(.text)
    SDIO_IRQHandler                          0x080001c3   Thumb Code     0  startup_stm32f401xc.o(.text)
    SPI1_IRQHandler                          0x080001c3   Thumb Code     0  startup_stm32f401xc.o(.text)
    SPI2_IRQHandler                          0x080001c3   Thumb Code     0  startup_stm32f401xc.o(.text)
    SPI3_IRQHandler                          0x080001c3   Thumb Code     0  startup_stm32f401xc.o(.text)
    SPI4_IRQHandler                          0x080001c3   Thumb Code     0  startup_stm32f401xc.o(.text)
    TAMP_STAMP_IRQHandler                    0x080001c3   Thumb Code     0  startup_stm32f401xc.o(.text)
    TIM1_BRK_TIM9_IRQHandler                 0x080001c3   Thumb Code     0  startup_stm32f401xc.o(.text)
    TIM1_CC_IRQHandler                       0x080001c3   Thumb Code     0  startup_stm32f401xc.o(.text)
    TIM1_TRG_COM_TIM11_IRQHandler            0x080001c3   Thumb Code     0  startup_stm32f401xc.o(.text)
    TIM1_UP_TIM10_IRQHandler                 0x080001c3   Thumb Code     0  startup_stm32f401xc.o(.text)
    TIM2_IRQHandler                          0x080001c3   Thumb Code     0  startup_stm32f401xc.o(.text)
    TIM4_IRQHandler                          0x080001c3   Thumb Code     0  startup_stm32f401xc.o(.text)
    TIM5_IRQHandler                          0x080001c3   Thumb Code     0  startup_stm32f401xc.o(.text)
    USART1_IRQHandler                        0x080001c3   Thumb Code     0  startup_stm32f401xc.o(.text)
    USART2_IRQHandler                        0x080001c3   Thumb Code     0  startup_stm32f401xc.o(.text)
    USART6_IRQHandler                        0x080001c3   Thumb Code     0  startup_stm32f401xc.o(.text)
    WWDG_IRQHandler                          0x080001c3   Thumb Code     0  startup_stm32f401xc.o(.text)
    __aeabi_uldivmod                         0x080001cd   Thumb Code    98  uldiv.o(.text)
    __aeabi_dadd                             0x0800022f   Thumb Code   322  dadd.o(.text)
    __aeabi_dsub                             0x08000371   Thumb Code     6  dadd.o(.text)
    __aeabi_drsub                            0x08000377   Thumb Code     6  dadd.o(.text)
    __aeabi_dmul                             0x0800037d   Thumb Code   228  dmul.o(.text)
    __aeabi_ddiv                             0x08000461   Thumb Code   222  ddiv.o(.text)
    __aeabi_ui2d                             0x0800053f   Thumb Code    26  dfltui.o(.text)
    __aeabi_l2d                              0x08000559   Thumb Code    40  dfltl.o(.text)
    __aeabi_d2iz                             0x08000581   Thumb Code    62  dfixi.o(.text)
    __aeabi_d2lz                             0x080005bf   Thumb Code    74  dfixl.o(.text)
    __aeabi_f2d                              0x08000609   Thumb Code    38  f2d.o(.text)
    __aeabi_cdcmpeq                          0x08000631   Thumb Code     0  cdcmple.o(.text)
    __aeabi_cdcmple                          0x08000631   Thumb Code    48  cdcmple.o(.text)
    __aeabi_d2f                              0x08000661   Thumb Code    56  d2f.o(.text)
    __aeabi_uidiv                            0x08000699   Thumb Code     0  uidiv.o(.text)
    __aeabi_uidivmod                         0x08000699   Thumb Code    44  uidiv.o(.text)
    __aeabi_llsl                             0x080006c5   Thumb Code    30  llshl.o(.text)
    _ll_shift_l                              0x080006c5   Thumb Code     0  llshl.o(.text)
    __aeabi_llsr                             0x080006e3   Thumb Code    32  llushr.o(.text)
    _ll_ushift_r                             0x080006e3   Thumb Code     0  llushr.o(.text)
    __aeabi_lasr                             0x08000703   Thumb Code    36  llsshr.o(.text)
    _ll_sshift_r                             0x08000703   Thumb Code     0  llsshr.o(.text)
    __I$use$fp                               0x08000727   Thumb Code     0  iusefp.o(.text)
    _float_round                             0x08000727   Thumb Code    18  fepilogue.o(.text)
    _float_epilogue                          0x08000739   Thumb Code    92  fepilogue.o(.text)
    _double_round                            0x08000795   Thumb Code    30  depilogue.o(.text)
    _double_epilogue                         0x080007b3   Thumb Code   156  depilogue.o(.text)
    __aeabi_d2ulz                            0x0800084f   Thumb Code    48  dfixul.o(.text)
    __aeabi_cdrcmple                         0x08000881   Thumb Code    48  cdrcmple.o(.text)
    __scatterload                            0x080008b1   Thumb Code    28  init.o(.text)
    __scatterload_rt2                        0x080008b1   Thumb Code     0  init.o(.text)
    __decompress                             0x080008d5   Thumb Code     0  __dczerorl2.o(.text)
    __decompress1                            0x080008d5   Thumb Code    86  __dczerorl2.o(.text)
    BPhero_Distance_Measure_Specail_TAG      0x0800092d   Thumb Code   140  tx_main.o(i.BPhero_Distance_Measure_Specail_TAG)
    BPhero_UWB_Init                          0x080009c9   Thumb Code   136  bphero_uwb.o(i.BPhero_UWB_Init)
    BPhero_UWB_Message_Init                  0x08000aa5   Thumb Code    38  bphero_uwb.o(i.BPhero_UWB_Message_Init)
    BusFault_Handler                         0x08000ad5   Thumb Code     2  stm32f4xx_it.o(i.BusFault_Handler)
    DebugMon_Handler                         0x08000ad7   Thumb Code     2  stm32f4xx_it.o(i.DebugMon_Handler)
    EXTI0_IRQHandler                         0x08000ad9   Thumb Code    28  stm32f4xx_it.o(i.EXTI0_IRQHandler)
    EXTI9_5_IRQHandler                       0x08000afd   Thumb Code    30  stm32f4xx_it.o(i.EXTI9_5_IRQHandler)
    EXTI_GetITEnStatus                       0x08000b25   Thumb Code     4  port.o(i.EXTI_GetITEnStatus)
    Gauss_Jordan                             0x08000b29   Thumb Code   580  matrix.o(i.Gauss_Jordan)
    HAL_Delay                                0x08000d79   Thumb Code    32  stm32f4xx_hal.o(i.HAL_Delay)
    HAL_GPIO_EXTI_Callback                   0x08000d9d   Thumb Code     2  stm32f4xx_hal_gpio.o(i.HAL_GPIO_EXTI_Callback)
    HAL_GPIO_EXTI_IRQHandler                 0x08000da1   Thumb Code    18  stm32f4xx_hal_gpio.o(i.HAL_GPIO_EXTI_IRQHandler)
    HAL_GPIO_Init                            0x08000db9   Thumb Code   358  stm32f4xx_hal_gpio.o(i.HAL_GPIO_Init)
    HAL_GPIO_TogglePin                       0x08000f41   Thumb Code     8  stm32f4xx_hal_gpio.o(i.HAL_GPIO_TogglePin)
    HAL_GPIO_WritePin                        0x08000f49   Thumb Code    10  stm32f4xx_hal_gpio.o(i.HAL_GPIO_WritePin)
    HAL_GetTick                              0x08000f55   Thumb Code     6  stm32f4xx_hal.o(i.HAL_GetTick)
    HAL_I2C_Init                             0x08000f61   Thumb Code   254  stm32f4xx_hal_i2c.o(i.HAL_I2C_Init)
    HAL_I2C_MspInit                          0x08001069   Thumb Code    62  stm32f4xx_hal_msp.o(i.HAL_I2C_MspInit)
    HAL_IncTick                              0x080010b5   Thumb Code    12  stm32f4xx_hal.o(i.HAL_IncTick)
    HAL_Init                                 0x080010c5   Thumb Code    48  stm32f4xx_hal.o(i.HAL_Init)
    HAL_InitTick                             0x080010f9   Thumb Code    54  stm32f4xx_hal.o(i.HAL_InitTick)
    HAL_MspInit                              0x08001139   Thumb Code   126  stm32f4xx_hal_msp.o(i.HAL_MspInit)
    HAL_NVIC_EnableIRQ                       0x080011bd   Thumb Code    22  stm32f4xx_hal_cortex.o(i.HAL_NVIC_EnableIRQ)
    HAL_NVIC_SetPriority                     0x080011d5   Thumb Code    60  stm32f4xx_hal_cortex.o(i.HAL_NVIC_SetPriority)
    HAL_NVIC_SetPriorityGrouping             0x08001215   Thumb Code    26  stm32f4xx_hal_cortex.o(i.HAL_NVIC_SetPriorityGrouping)
    HAL_RCC_CSSCallback                      0x08001239   Thumb Code     2  stm32f4xx_hal_rcc.o(i.HAL_RCC_CSSCallback)
    HAL_RCC_ClockConfig                      0x0800123d   Thumb Code   286  stm32f4xx_hal_rcc.o(i.HAL_RCC_ClockConfig)
    HAL_RCC_EnableCSS                        0x0800136d   Thumb Code     8  stm32f4xx_hal_rcc.o(i.HAL_RCC_EnableCSS)
    HAL_RCC_GetHCLKFreq                      0x08001379   Thumb Code     6  stm32f4xx_hal_rcc.o(i.HAL_RCC_GetHCLKFreq)
    HAL_RCC_GetPCLK1Freq                     0x08001385   Thumb Code    20  stm32f4xx_hal_rcc.o(i.HAL_RCC_GetPCLK1Freq)
    HAL_RCC_GetPCLK2Freq                     0x080013a5   Thumb Code    20  stm32f4xx_hal_rcc.o(i.HAL_RCC_GetPCLK2Freq)
    HAL_RCC_GetSysClockFreq                  0x080013c5   Thumb Code    66  stm32f4xx_hal_rcc.o(i.HAL_RCC_GetSysClockFreq)
    HAL_RCC_NMI_IRQHandler                   0x08001411   Thumb Code    24  stm32f4xx_hal_rcc.o(i.HAL_RCC_NMI_IRQHandler)
    HAL_RCC_OscConfig                        0x0800142d   Thumb Code   770  stm32f4xx_hal_rcc.o(i.HAL_RCC_OscConfig)
    HAL_SPI_Init                             0x08001749   Thumb Code   128  stm32f4xx_hal_spi.o(i.HAL_SPI_Init)
    HAL_SPI_MspInit                          0x080017c9   Thumb Code    60  stm32f4xx_hal_msp.o(i.HAL_SPI_MspInit)
    HAL_SPI_Receive                          0x08001811   Thumb Code   336  stm32f4xx_hal_spi.o(i.HAL_SPI_Receive)
    HAL_SPI_Transmit                         0x08001961   Thumb Code   360  stm32f4xx_hal_spi.o(i.HAL_SPI_Transmit)
    HAL_SPI_TransmitReceive                  0x08001ac9   Thumb Code   472  stm32f4xx_hal_spi.o(i.HAL_SPI_TransmitReceive)
    HAL_SYSTICK_CLKSourceConfig              0x08001ca1   Thumb Code    24  stm32f4xx_hal_cortex.o(i.HAL_SYSTICK_CLKSourceConfig)
    HAL_SYSTICK_Callback                     0x08001cb9   Thumb Code     2  stm32f4xx_hal_cortex.o(i.HAL_SYSTICK_Callback)
    HAL_SYSTICK_Config                       0x08001cbb   Thumb Code    40  stm32f4xx_hal_cortex.o(i.HAL_SYSTICK_Config)
    HAL_SYSTICK_IRQHandler                   0x08001ce3   Thumb Code     8  stm32f4xx_hal_cortex.o(i.HAL_SYSTICK_IRQHandler)
    HAL_TIMEx_BreakCallback                  0x08001ceb   Thumb Code     2  stm32f4xx_hal_tim_ex.o(i.HAL_TIMEx_BreakCallback)
    HAL_TIMEx_CommutationCallback            0x08001ced   Thumb Code     2  stm32f4xx_hal_tim_ex.o(i.HAL_TIMEx_CommutationCallback)
    HAL_TIM_IC_CaptureCallback               0x08001cef   Thumb Code     2  stm32f4xx_hal_tim.o(i.HAL_TIM_IC_CaptureCallback)
    HAL_TIM_IRQHandler                       0x08001cf1   Thumb Code   358  stm32f4xx_hal_tim.o(i.HAL_TIM_IRQHandler)
    HAL_TIM_OC_DelayElapsedCallback          0x08001e57   Thumb Code     2  stm32f4xx_hal_tim.o(i.HAL_TIM_OC_DelayElapsedCallback)
    HAL_TIM_PWM_PulseFinishedCallback        0x08001e59   Thumb Code     2  stm32f4xx_hal_tim.o(i.HAL_TIM_PWM_PulseFinishedCallback)
    HAL_TIM_PeriodElapsedCallback            0x08001e5d   Thumb Code    44  tx_main.o(i.HAL_TIM_PeriodElapsedCallback)
    HAL_TIM_TriggerCallback                  0x08001e95   Thumb Code     2  stm32f4xx_hal_tim.o(i.HAL_TIM_TriggerCallback)
    HAL_UART_Init                            0x08001e97   Thumb Code    98  stm32f4xx_hal_uart.o(i.HAL_UART_Init)
    HAL_UART_MspInit                         0x08001ef9   Thumb Code    64  stm32f4xx_hal_msp.o(i.HAL_UART_MspInit)
    HAL_UART_Transmit                        0x08001f45   Thumb Code   186  stm32f4xx_hal_uart.o(i.HAL_UART_Transmit)
    HardFault_Handler                        0x08001fff   Thumb Code     2  stm32f4xx_it.o(i.HardFault_Handler)
    KalMan                                   0x08002001   Thumb Code   378  kalman.o(i.KalMan)
    KalMan_Init                              0x08002185   Thumb Code    70  kalman.o(i.KalMan_Init)
    MX_I2C1_Init                             0x08002289   Thumb Code    54  port.o(i.MX_I2C1_Init)
    MX_SPI1_Init                             0x080022dd   Thumb Code    66  port.o(i.MX_SPI1_Init)
    MX_SPI1_Init_Fast                        0x08002339   Thumb Code    60  port.o(i.MX_SPI1_Init_Fast)
    MatrixAdd                                0x080023f5   Thumb Code    50  matrix.o(i.MatrixAdd)
    MatrixCal1                               0x08002427   Thumb Code    70  matrix.o(i.MatrixCal1)
    MatrixCal2                               0x0800246d   Thumb Code    66  matrix.o(i.MatrixCal2)
    MatrixMinus                              0x080024b1   Thumb Code    50  matrix.o(i.MatrixMinus)
    MatrixMul                                0x080024e5   Thumb Code   100  matrix.o(i.MatrixMul)
    MatrixTrans                              0x0800254d   Thumb Code    54  matrix.o(i.MatrixTrans)
    MemManage_Handler                        0x08002583   Thumb Code     2  stm32f4xx_it.o(i.MemManage_Handler)
    NMI_Handler                              0x08002585   Thumb Code     4  stm32f4xx_it.o(i.NMI_Handler)
    NVIC_Configuration                       0x08002589   Thumb Code   112  port.o(i.NVIC_Configuration)
    OLED_Clear                               0x08002645   Thumb Code    60  lcd_oled.o(i.OLED_Clear)
    OLED_Init                                0x08002681   Thumb Code   138  lcd_oled.o(i.OLED_Init)
    OLED_Set_Pos                             0x08002719   Thumb Code    44  lcd_oled.o(i.OLED_Set_Pos)
    OLED_ShowChar                            0x08002745   Thumb Code    94  lcd_oled.o(i.OLED_ShowChar)
    OLED_ShowString                          0x080027a9   Thumb Code    50  lcd_oled.o(i.OLED_ShowString)
    OLED_WR_Byte                             0x080027dd   Thumb Code   126  lcd_oled.o(i.OLED_WR_Byte)
    PendSV_Handler                           0x08002861   Thumb Code     2  stm32f4xx_it.o(i.PendSV_Handler)
    SVC_Handler                              0x08002919   Thumb Code     2  stm32f4xx_it.o(i.SVC_Handler)
    Simple_Rx_Callback                       0x0800291d   Thumb Code   662  rx_main.o(i.Simple_Rx_Callback)
    SysTick_Configuration                    0x08002c1d   Thumb Code    60  port.o(i.SysTick_Configuration)
    SysTick_Handler                          0x08002c5d   Thumb Code    20  stm32f4xx_it.o(i.SysTick_Handler)
    SystemClock_Config                       0x08002c75   Thumb Code   166  port.o(i.SystemClock_Config)
    SystemInit                               0x08002d35   Thumb Code    66  system_stm32f4xx.o(i.SystemInit)
    TIM3_IRQHandler                          0x08002d89   Thumb Code     6  stm32f4xx_it.o(i.TIM3_IRQHandler)
    UsageFault_Handler                       0x080030a5   Thumb Code     2  stm32f4xx_it.o(i.UsageFault_Handler)
    _Error_Handler                           0x080030a7   Thumb Code     2  main.o(i._Error_Handler)
    __0printf                                0x080030a9   Thumb Code    22  printfa.o(i.__0printf)
    __1printf                                0x080030a9   Thumb Code     0  printfa.o(i.__0printf)
    __2printf                                0x080030a9   Thumb Code     0  printfa.o(i.__0printf)
    __c89printf                              0x080030a9   Thumb Code     0  printfa.o(i.__0printf)
    printf                                   0x080030a9   Thumb Code     0  printfa.o(i.__0printf)
    __0sprintf                               0x080030c9   Thumb Code    34  printfa.o(i.__0sprintf)
    __1sprintf                               0x080030c9   Thumb Code     0  printfa.o(i.__0sprintf)
    __2sprintf                               0x080030c9   Thumb Code     0  printfa.o(i.__0sprintf)
    __c89sprintf                             0x080030c9   Thumb Code     0  printfa.o(i.__0sprintf)
    sprintf                                  0x080030c9   Thumb Code     0  printfa.o(i.__0sprintf)
    __scatterload_copy                       0x080030f1   Thumb Code    14  handlers.o(i.__scatterload_copy)
    __scatterload_null                       0x080030ff   Thumb Code     2  handlers.o(i.__scatterload_null)
    __scatterload_zeroinit                   0x08003101   Thumb Code    14  handlers.o(i.__scatterload_zeroinit)
    _dwt_configlde                           0x0800310f   Thumb Code    48  deca_device.o(i._dwt_configlde)
    _dwt_enableclocks                        0x0800313f   Thumb Code   194  deca_device.o(i._dwt_enableclocks)
    _dwt_loaducodefromrom                    0x08003201   Thumb Code    52  deca_device.o(i._dwt_loaducodefromrom)
    _dwt_otpread                             0x08003235   Thumb Code    70  deca_device.o(i._dwt_otpread)
    bphero_setcallbacks                      0x08003b39   Thumb Code     6  port.o(i.bphero_setcallbacks)
    deca_sleep                               0x08003b45   Thumb Code    24  deca_sleep.o(i.deca_sleep)
    decamutexoff                             0x08003b5d   Thumb Code    16  deca_mutex.o(i.decamutexoff)
    decamutexon                              0x08003b6d   Thumb Code    24  deca_mutex.o(i.decamutexon)
    dwt_SetTxPower                           0x08003b85   Thumb Code    14  deca_device.o(i.dwt_SetTxPower)
    dwt_configure                            0x08003b95   Thumb Code   490  deca_device.o(i.dwt_configure)
    dwt_configuretxrf                        0x08003dad   Thumb Code    30  deca_device.o(i.dwt_configuretxrf)
    dwt_enable_pa                            0x08003dcb   Thumb Code    36  deca_device.o(i.dwt_enable_pa)
    dwt_enableframefilter                    0x08003df1   Thumb Code    54  deca_device.o(i.dwt_enableframefilter)
    dwt_entersleepaftertx                    0x08003e31   Thumb Code    36  deca_device.o(i.dwt_entersleepaftertx)
    dwt_forcetrxoff                          0x08003e55   Thumb Code    86  deca_device.o(i.dwt_forcetrxoff)
    dwt_getrangebias                         0x08003eb5   Thumb Code   214  deca_range_tables.o(i.dwt_getrangebias)
    dwt_initialise                           0x08003fa5   Thumb Code   210  deca_device.o(i.dwt_initialise)
    dwt_read16bitoffsetreg                   0x08004081   Thumb Code    36  deca_device.o(i.dwt_read16bitoffsetreg)
    dwt_read32bitoffsetreg                   0x080040a5   Thumb Code    36  deca_device.o(i.dwt_read32bitoffsetreg)
    dwt_readdevid                            0x080040c9   Thumb Code     8  deca_device.o(i.dwt_readdevid)
    dwt_readfromdevice                       0x080040d1   Thumb Code    58  deca_device.o(i.dwt_readfromdevice)
    dwt_readrxdata                           0x0800410b   Thumb Code    18  deca_device.o(i.dwt_readrxdata)
    dwt_readrxtimestamp                      0x0800411d   Thumb Code    12  deca_device.o(i.dwt_readrxtimestamp)
    dwt_readtxtimestamp                      0x08004129   Thumb Code    12  deca_device.o(i.dwt_readtxtimestamp)
    dwt_rxenable                             0x08004135   Thumb Code    78  deca_device.o(i.dwt_rxenable)
    dwt_setaddress16                         0x08004183   Thumb Code    10  deca_device.o(i.dwt_setaddress16)
    dwt_setinterrupt                         0x0800418d   Thumb Code    48  deca_device.o(i.dwt_setinterrupt)
    dwt_setleds                              0x080041bd   Thumb Code   184  deca_device.o(i.dwt_setleds)
    dwt_setpanid                             0x08004275   Thumb Code    10  deca_device.o(i.dwt_setpanid)
    dwt_setrxantennadelay                    0x0800427f   Thumb Code    12  deca_device.o(i.dwt_setrxantennadelay)
    dwt_setrxtimeout                         0x0800428d   Thumb Code    84  deca_device.o(i.dwt_setrxtimeout)
    dwt_settxantennadelay                    0x080042e5   Thumb Code    10  deca_device.o(i.dwt_settxantennadelay)
    dwt_starttx                              0x080042f1   Thumb Code   140  deca_device.o(i.dwt_starttx)
    dwt_syncrxbufptrs                        0x08004381   Thumb Code    52  deca_device.o(i.dwt_syncrxbufptrs)
    dwt_write16bitoffsetreg                  0x080043b5   Thumb Code    26  deca_device.o(i.dwt_write16bitoffsetreg)
    dwt_write32bitoffsetreg                  0x080043cf   Thumb Code    30  deca_device.o(i.dwt_write32bitoffsetreg)
    dwt_writetodevice                        0x080043ed   Thumb Code    62  deca_device.o(i.dwt_writetodevice)
    dwt_writetxdata                          0x0800442b   Thumb Code    32  deca_device.o(i.dwt_writetxdata)
    dwt_writetxfctrl                         0x0800444d   Thumb Code    24  deca_device.o(i.dwt_writetxfctrl)
    dwt_xtaltrim                             0x08004469   Thumb Code    48  deca_device.o(i.dwt_xtaltrim)
    final_msg_get_ts                         0x08004499   Thumb Code    26  dwm1000_timestamp.o(i.final_msg_get_ts)
    fputc                                    0x080044b5   Thumb Code    24  port.o(i.fputc)
    get_rx_timestamp_u64                     0x080044d1   Thumb Code    38  dwm1000_timestamp.o(i.get_rx_timestamp_u64)
    get_tx_timestamp_u64                     0x080044f7   Thumb Code    38  dwm1000_timestamp.o(i.get_tx_timestamp_u64)
    main                                     0x0800451d   Thumb Code    22  main.o(i.main)
    peripherals_init                         0x08004533   Thumb Code    46  port.o(i.peripherals_init)
    portGetTickCnt                           0x08004561   Thumb Code     6  port.o(i.portGetTickCnt)
    readfromspi_serial                       0x0800456d   Thumb Code    80  deca_spi.o(i.readfromspi_serial)
    reset_DW1000                             0x080045c5   Thumb Code    76  port.o(i.reset_DW1000)
    rx_main                                  0x08004615   Thumb Code    70  rx_main.o(i.rx_main)
    spi_set_rate_high                        0x08004695   Thumb Code     4  port.o(i.spi_set_rate_high)
    spi_set_rate_low                         0x08004699   Thumb Code     4  port.o(i.spi_set_rate_low)
    writetospi_serial                        0x0800469d   Thumb Code    80  deca_spi.o(i.writetospi_serial)
    AHBPrescTable                            0x080046f4   Data          16  system_stm32f4xx.o(.constdata)
    APBPrescTable                            0x08004704   Data           8  system_stm32f4xx.o(.constdata)
    F8X16                                    0x0800470c   Data        1520  lcd_oled.o(.constdata)
    chan_idx                                 0x08004cfc   Data           8  deca_params_init.o(.constdata)
    tx_config                                0x08004d04   Data          24  deca_params_init.o(.constdata)
    pll2_config                              0x08004d1c   Data          30  deca_params_init.o(.constdata)
    rx_config                                0x08004d3a   Data           2  deca_params_init.o(.constdata)
    agc_config                               0x08004d3c   Data           8  deca_params_init.o(.constdata)
    dwnsSFDlen                               0x08004d44   Data           3  deca_params_init.o(.constdata)
    sftsh                                    0x08004d48   Data          12  deca_params_init.o(.constdata)
    dtune1                                   0x08004d54   Data           4  deca_params_init.o(.constdata)
    digital_bb_config                        0x08004d58   Data          32  deca_params_init.o(.constdata)
    lde_replicaCoeff                         0x08004d78   Data          50  deca_params_init.o(.constdata)
    chan_idxnb                               0x08004daa   Data           8  deca_range_tables.o(.constdata)
    chan_idxwb                               0x08004db2   Data           8  deca_range_tables.o(.constdata)
    range25cm16PRFnb                         0x08004dba   Data         148  deca_range_tables.o(.constdata)
    range25cm16PRFwb                         0x08004e4e   Data         136  deca_range_tables.o(.constdata)
    range25cm64PRFnb                         0x08004ed6   Data         104  deca_range_tables.o(.constdata)
    range25cm64PRFwb                         0x08004f3e   Data         118  deca_range_tables.o(.constdata)
    Region$$Table$$Base                      0x080050c8   Number         0  anon$$obj.o(Region$$Table)
    Region$$Table$$Limit                     0x080050e8   Number         0  anon$$obj.o(Region$$Table)
    time32_incr                              0x20000000   Data           4  stm32f4xx_it.o(.data)
    Tag_State                                0x20000009   Data           1  tx_main.o(.data)
    Dest_Address                             0x2000000a   Data           2  tx_main.o(.data)
    Final_Distance                           0x2000000c   Data           4  tx_main.o(.data)
    psduLength                               0x20000060   Data           4  bphero_uwb.o(.data)
    config                                   0x20000064   Data          11  bphero_uwb.o(.data)
    frame_len                                0x20000070   Data           2  bphero_uwb.o(.data)
    uwTickFreq                               0x20000074   Data           1  stm32f4xx_hal.o(.data)
    uwTickPrio                               0x20000078   Data           4  stm32f4xx_hal.o(.data)
    uwTick                                   0x2000007c   Data           4  stm32f4xx_hal.o(.data)
    SystemCoreClock                          0x20000080   Data           4  system_stm32f4xx.o(.data)
    Hzk                                      0x20000084   Data         448  lcd_oled.o(.data)
    InitCmd                                  0x20000244   Data          12  lcd_oled.o(.data)
    bphero_rxcallback                        0x20000250   Data           4  port.o(.data)
    Y                                        0x20000254   Data           4  kalman.o(.data)
    Temp1                                    0x20000258   Data           4  kalman.o(.data)
    R                                        0x2000025c   Data           4  kalman.o(.data)
    X                                        0x20000260   Data           8  kalman.o(.data)
    K                                        0x20000268   Data           8  kalman.o(.data)
    C                                        0x20000270   Data           8  kalman.o(.data)
    Temp2                                    0x20000278   Data           8  kalman.o(.data)
    Temp22                                   0x20000280   Data           8  kalman.o(.data)
    I                                        0x20000288   Data          16  kalman.o(.data)
    P                                        0x20000298   Data          16  kalman.o(.data)
    A                                        0x200002a8   Data          16  kalman.o(.data)
    Q                                        0x200002b8   Data          16  kalman.o(.data)
    Temp4                                    0x200002c8   Data          16  kalman.o(.data)
    __stdout                                 0x200002d8   Data           4  stdout.o(.data)
    dist_str                                 0x200002dc   Data          16  tx_main.o(.bss)
    htim3                                    0x200002ec   Data          60  tx_main.o(.bss)
    msg_f_send                               0x20000328   Data          94  bphero_uwb.o(.bss)
    rx_buffer                                0x20000386   Data         127  bphero_uwb.o(.bss)
    hi2c1                                    0x20000408   Data          84  port.o(.bss)
    hspi1                                    0x2000045c   Data          88  port.o(.bss)
    huart1                                   0x200004b4   Data          64  port.o(.bss)
    htim1                                    0x200004f4   Data          60  port.o(.bss)
    tOpt                                     0x2000056c   Data          16  kalman.o(.bss)
    tCov                                     0x2000057c   Data          32  kalman.o(.bss)
    __initial_sp                             0x200009a0   Data           0  startup_stm32f401xc.o(STACK)



==============================================================================

Memory Map of the image

  Image Entry point : 0x08000195

  Load Region LR_IROM1 (Base: 0x08000000, Size: 0x000053c4, Max: 0x00040000, ABSOLUTE, COMPRESSED[0x000051ec])

    Execution Region ER_IROM1 (Base: 0x08000000, Size: 0x000050e8, Max: 0x00040000, ABSOLUTE)

    Base Addr    Size         Type   Attr      Idx    E Section Name        Object

    0x08000000   0x00000194   Data   RO            3    RESET               startup_stm32f401xc.o
    0x08000194   0x00000000   Code   RO         4809  * .ARM.Collect$$$$00000000  mc_w.l(entry.o)
    0x08000194   0x00000004   Code   RO         5134    .ARM.Collect$$$$00000001  mc_w.l(entry2.o)
    0x08000198   0x00000004   Code   RO         5137    .ARM.Collect$$$$00000004  mc_w.l(entry5.o)
    0x0800019c   0x00000000   Code   RO         5139    .ARM.Collect$$$$00000008  mc_w.l(entry7b.o)
    0x0800019c   0x00000000   Code   RO         5141    .ARM.Collect$$$$0000000A  mc_w.l(entry8b.o)
    0x0800019c   0x00000008   Code   RO         5142    .ARM.Collect$$$$0000000B  mc_w.l(entry9a.o)
    0x080001a4   0x00000000   Code   RO         5144    .ARM.Collect$$$$0000000D  mc_w.l(entry10a.o)
    0x080001a4   0x00000000   Code   RO         5146    .ARM.Collect$$$$0000000F  mc_w.l(entry11a.o)
    0x080001a4   0x00000004   Code   RO         5135    .ARM.Collect$$$$00002712  mc_w.l(entry2.o)
    0x080001a8   0x00000024   Code   RO            4    .text               startup_stm32f401xc.o
    0x080001cc   0x00000062   Code   RO         4815    .text               mc_w.l(uldiv.o)
    0x0800022e   0x0000014e   Code   RO         5081    .text               mf_w.l(dadd.o)
    0x0800037c   0x000000e4   Code   RO         5083    .text               mf_w.l(dmul.o)
    0x08000460   0x000000de   Code   RO         5085    .text               mf_w.l(ddiv.o)
    0x0800053e   0x0000001a   Code   RO         5089    .text               mf_w.l(dfltui.o)
    0x08000558   0x00000028   Code   RO         5091    .text               mf_w.l(dfltl.o)
    0x08000580   0x0000003e   Code   RO         5093    .text               mf_w.l(dfixi.o)
    0x080005be   0x0000004a   Code   RO         5095    .text               mf_w.l(dfixl.o)
    0x08000608   0x00000026   Code   RO         5097    .text               mf_w.l(f2d.o)
    0x0800062e   0x00000002   PAD
    0x08000630   0x00000030   Code   RO         5099    .text               mf_w.l(cdcmple.o)
    0x08000660   0x00000038   Code   RO         5101    .text               mf_w.l(d2f.o)
    0x08000698   0x0000002c   Code   RO         5148    .text               mc_w.l(uidiv.o)
    0x080006c4   0x0000001e   Code   RO         5150    .text               mc_w.l(llshl.o)
    0x080006e2   0x00000020   Code   RO         5152    .text               mc_w.l(llushr.o)
    0x08000702   0x00000024   Code   RO         5154    .text               mc_w.l(llsshr.o)
    0x08000726   0x00000000   Code   RO         5163    .text               mc_w.l(iusefp.o)
    0x08000726   0x0000006e   Code   RO         5164    .text               mf_w.l(fepilogue.o)
    0x08000794   0x000000ba   Code   RO         5166    .text               mf_w.l(depilogue.o)
    0x0800084e   0x00000030   Code   RO         5172    .text               mf_w.l(dfixul.o)
    0x0800087e   0x00000002   PAD
    0x08000880   0x00000030   Code   RO         5174    .text               mf_w.l(cdrcmple.o)
    0x080008b0   0x00000024   Code   RO         5184    .text               mc_w.l(init.o)
    0x080008d4   0x00000056   Code   RO         5194    .text               mc_w.l(__dczerorl2.o)
    0x0800092a   0x00000002   PAD
    0x0800092c   0x0000009c   Code   RO          399    i.BPhero_Distance_Measure_Specail_TAG  tx_main.o
    0x080009c8   0x000000dc   Code   RO          536    i.BPhero_UWB_Init   bphero_uwb.o
    0x08000aa4   0x00000030   Code   RO          537    i.BPhero_UWB_Message_Init  bphero_uwb.o
    0x08000ad4   0x00000002   Code   RO          163    i.BusFault_Handler  stm32f4xx_it.o
    0x08000ad6   0x00000002   Code   RO          164    i.DebugMon_Handler  stm32f4xx_it.o
    0x08000ad8   0x00000024   Code   RO          165    i.EXTI0_IRQHandler  stm32f4xx_it.o
    0x08000afc   0x00000028   Code   RO          166    i.EXTI9_5_IRQHandler  stm32f4xx_it.o
    0x08000b24   0x00000004   Code   RO         3915    i.EXTI_GetITEnStatus  port.o
    0x08000b28   0x00000250   Code   RO         4704    i.Gauss_Jordan      matrix.o
    0x08000d78   0x00000024   Code   RO         3464    i.HAL_Delay         stm32f4xx_hal.o
    0x08000d9c   0x00000002   Code   RO         2912    i.HAL_GPIO_EXTI_Callback  stm32f4xx_hal_gpio.o
    0x08000d9e   0x00000002   PAD
    0x08000da0   0x00000018   Code   RO         2913    i.HAL_GPIO_EXTI_IRQHandler  stm32f4xx_hal_gpio.o
    0x08000db8   0x00000188   Code   RO         2914    i.HAL_GPIO_Init     stm32f4xx_hal_gpio.o
    0x08000f40   0x00000008   Code   RO         2917    i.HAL_GPIO_TogglePin  stm32f4xx_hal_gpio.o
    0x08000f48   0x0000000a   Code   RO         2918    i.HAL_GPIO_WritePin  stm32f4xx_hal_gpio.o
    0x08000f52   0x00000002   PAD
    0x08000f54   0x0000000c   Code   RO         3470    i.HAL_GetTick       stm32f4xx_hal.o
    0x08000f60   0x00000108   Code   RO          605    i.HAL_I2C_Init      stm32f4xx_hal_i2c.o
    0x08001068   0x0000004c   Code   RO          261    i.HAL_I2C_MspInit   stm32f4xx_hal_msp.o
    0x080010b4   0x00000010   Code   RO         3474    i.HAL_IncTick       stm32f4xx_hal.o
    0x080010c4   0x00000034   Code   RO         3475    i.HAL_Init          stm32f4xx_hal.o
    0x080010f8   0x00000040   Code   RO         3476    i.HAL_InitTick      stm32f4xx_hal.o
    0x08001138   0x00000084   Code   RO          262    i.HAL_MspInit       stm32f4xx_hal_msp.o
    0x080011bc   0x00000016   Code   RO         3327    i.HAL_NVIC_EnableIRQ  stm32f4xx_hal_cortex.o
    0x080011d2   0x00000002   PAD
    0x080011d4   0x00000040   Code   RO         3333    i.HAL_NVIC_SetPriority  stm32f4xx_hal_cortex.o
    0x08001214   0x00000024   Code   RO         3334    i.HAL_NVIC_SetPriorityGrouping  stm32f4xx_hal_cortex.o
    0x08001238   0x00000002   Code   RO         2535    i.HAL_RCC_CSSCallback  stm32f4xx_hal_rcc.o
    0x0800123a   0x00000002   PAD
    0x0800123c   0x00000130   Code   RO         2536    i.HAL_RCC_ClockConfig  stm32f4xx_hal_rcc.o
    0x0800136c   0x0000000c   Code   RO         2539    i.HAL_RCC_EnableCSS  stm32f4xx_hal_rcc.o
    0x08001378   0x0000000c   Code   RO         2541    i.HAL_RCC_GetHCLKFreq  stm32f4xx_hal_rcc.o
    0x08001384   0x00000020   Code   RO         2543    i.HAL_RCC_GetPCLK1Freq  stm32f4xx_hal_rcc.o
    0x080013a4   0x00000020   Code   RO         2544    i.HAL_RCC_GetPCLK2Freq  stm32f4xx_hal_rcc.o
    0x080013c4   0x0000004c   Code   RO         2545    i.HAL_RCC_GetSysClockFreq  stm32f4xx_hal_rcc.o
    0x08001410   0x0000001c   Code   RO         2547    i.HAL_RCC_NMI_IRQHandler  stm32f4xx_hal_rcc.o
    0x0800142c   0x0000031c   Code   RO         2548    i.HAL_RCC_OscConfig  stm32f4xx_hal_rcc.o
    0x08001748   0x00000080   Code   RO         1033    i.HAL_SPI_Init      stm32f4xx_hal_spi.o
    0x080017c8   0x00000048   Code   RO          264    i.HAL_SPI_MspInit   stm32f4xx_hal_msp.o
    0x08001810   0x00000150   Code   RO         1036    i.HAL_SPI_Receive   stm32f4xx_hal_spi.o
    0x08001960   0x00000168   Code   RO         1041    i.HAL_SPI_Transmit  stm32f4xx_hal_spi.o
    0x08001ac8   0x000001d8   Code   RO         1042    i.HAL_SPI_TransmitReceive  stm32f4xx_hal_spi.o
    0x08001ca0   0x00000018   Code   RO         3336    i.HAL_SYSTICK_CLKSourceConfig  stm32f4xx_hal_cortex.o
    0x08001cb8   0x00000002   Code   RO         3337    i.HAL_SYSTICK_Callback  stm32f4xx_hal_cortex.o
    0x08001cba   0x00000028   Code   RO         3338    i.HAL_SYSTICK_Config  stm32f4xx_hal_cortex.o
    0x08001ce2   0x00000008   Code   RO         3339    i.HAL_SYSTICK_IRQHandler  stm32f4xx_hal_cortex.o
    0x08001cea   0x00000002   Code   RO         1970    i.HAL_TIMEx_BreakCallback  stm32f4xx_hal_tim_ex.o
    0x08001cec   0x00000002   Code   RO         1971    i.HAL_TIMEx_CommutationCallback  stm32f4xx_hal_tim_ex.o
    0x08001cee   0x00000002   Code   RO         1370    i.HAL_TIM_IC_CaptureCallback  stm32f4xx_hal_tim.o
    0x08001cf0   0x00000166   Code   RO         1383    i.HAL_TIM_IRQHandler  stm32f4xx_hal_tim.o
    0x08001e56   0x00000002   Code   RO         1386    i.HAL_TIM_OC_DelayElapsedCallback  stm32f4xx_hal_tim.o
    0x08001e58   0x00000002   Code   RO         1413    i.HAL_TIM_PWM_PulseFinishedCallback  stm32f4xx_hal_tim.o
    0x08001e5a   0x00000002   PAD
    0x08001e5c   0x00000038   Code   RO          400    i.HAL_TIM_PeriodElapsedCallback  tx_main.o
    0x08001e94   0x00000002   Code   RO         1424    i.HAL_TIM_TriggerCallback  stm32f4xx_hal_tim.o
    0x08001e96   0x00000062   Code   RO         2234    i.HAL_UART_Init     stm32f4xx_hal_uart.o
    0x08001ef8   0x0000004c   Code   RO          268    i.HAL_UART_MspInit  stm32f4xx_hal_msp.o
    0x08001f44   0x000000ba   Code   RO         2242    i.HAL_UART_Transmit  stm32f4xx_hal_uart.o
    0x08001ffe   0x00000002   Code   RO          167    i.HardFault_Handler  stm32f4xx_it.o
    0x08002000   0x00000184   Code   RO         4656    i.KalMan            kalman.o
    0x08002184   0x00000050   Code   RO         4657    i.KalMan_Init       kalman.o
    0x080021d4   0x000000b4   Code   RO         3916    i.MX_GPIO_Init      port.o
    0x08002288   0x00000054   Code   RO         3917    i.MX_I2C1_Init      port.o
    0x080022dc   0x0000005c   Code   RO         3918    i.MX_SPI1_Init      port.o
    0x08002338   0x00000044   Code   RO         3919    i.MX_SPI1_Init_Fast  port.o
    0x0800237c   0x00000078   Code   RO         3921    i.MX_USART1_UART_Init  port.o
    0x080023f4   0x00000032   Code   RO         4705    i.MatrixAdd         matrix.o
    0x08002426   0x00000046   Code   RO         4706    i.MatrixCal1        matrix.o
    0x0800246c   0x00000042   Code   RO         4707    i.MatrixCal2        matrix.o
    0x080024ae   0x00000002   PAD
    0x080024b0   0x00000032   Code   RO         4710    i.MatrixMinus       matrix.o
    0x080024e2   0x00000002   PAD
    0x080024e4   0x00000068   Code   RO         4711    i.MatrixMul         matrix.o
    0x0800254c   0x00000036   Code   RO         4712    i.MatrixTrans       matrix.o
    0x08002582   0x00000002   Code   RO          168    i.MemManage_Handler  stm32f4xx_it.o
    0x08002584   0x00000004   Code   RO          169    i.NMI_Handler       stm32f4xx_it.o
    0x08002588   0x0000007c   Code   RO         3922    i.NVIC_Configuration  port.o
    0x08002604   0x00000020   Code   RO         3340    i.NVIC_SetPriority  stm32f4xx_hal_cortex.o
    0x08002624   0x00000020   Code   RO         3924    i.NVIC_SetPriority  port.o
    0x08002644   0x0000003c   Code   RO         3793    i.OLED_Clear        lcd_oled.o
    0x08002680   0x00000098   Code   RO         3797    i.OLED_Init         lcd_oled.o
    0x08002718   0x0000002c   Code   RO         3798    i.OLED_Set_Pos      lcd_oled.o
    0x08002744   0x00000064   Code   RO         3800    i.OLED_ShowChar     lcd_oled.o
    0x080027a8   0x00000032   Code   RO         3802    i.OLED_ShowString   lcd_oled.o
    0x080027da   0x00000002   PAD
    0x080027dc   0x00000084   Code   RO         3803    i.OLED_WR_Byte      lcd_oled.o
    0x08002860   0x00000002   Code   RO          170    i.PendSV_Handler    stm32f4xx_it.o
    0x08002862   0x00000020   Code   RO         1057    i.SPI_CheckFlag_BSY  stm32f4xx_hal_spi.o
    0x08002882   0x00000096   Code   RO         1075    i.SPI_WaitFlagStateUntilTimeout  stm32f4xx_hal_spi.o
    0x08002918   0x00000002   Code   RO          171    i.SVC_Handler       stm32f4xx_it.o
    0x0800291a   0x00000002   PAD
    0x0800291c   0x00000300   Code   RO          486    i.Simple_Rx_Callback  rx_main.o
    0x08002c1c   0x00000040   Code   RO         3925    i.SysTick_Configuration  port.o
    0x08002c5c   0x00000018   Code   RO          172    i.SysTick_Handler   stm32f4xx_it.o
    0x08002c74   0x000000c0   Code   RO         3926    i.SystemClock_Config  port.o
    0x08002d34   0x00000054   Code   RO         3629    i.SystemInit        system_stm32f4xx.o
    0x08002d88   0x0000000c   Code   RO          173    i.TIM3_IRQHandler   stm32f4xx_it.o
    0x08002d94   0x000002ac   Code   RO         2260    i.UART_SetConfig    stm32f4xx_hal_uart.o
    0x08003040   0x00000064   Code   RO         2262    i.UART_WaitOnFlagUntilTimeout  stm32f4xx_hal_uart.o
    0x080030a4   0x00000002   Code   RO          174    i.UsageFault_Handler  stm32f4xx_it.o
    0x080030a6   0x00000002   Code   RO           13    i._Error_Handler    main.o
    0x080030a8   0x00000020   Code   RO         5053    i.__0printf         mc_w.l(printfa.o)
    0x080030c8   0x00000028   Code   RO         5055    i.__0sprintf        mc_w.l(printfa.o)
    0x080030f0   0x0000000e   Code   RO         5188    i.__scatterload_copy  mc_w.l(handlers.o)
    0x080030fe   0x00000002   Code   RO         5189    i.__scatterload_null  mc_w.l(handlers.o)
    0x08003100   0x0000000e   Code   RO         5190    i.__scatterload_zeroinit  mc_w.l(handlers.o)
    0x0800310e   0x00000030   Code   RO         4088    i._dwt_configlde    deca_device.o
    0x0800313e   0x000000c2   Code   RO         4090    i._dwt_enableclocks  deca_device.o
    0x08003200   0x00000034   Code   RO         4091    i._dwt_loaducodefromrom  deca_device.o
    0x08003234   0x00000046   Code   RO         4093    i._dwt_otpread      deca_device.o
    0x0800327a   0x00000002   PAD
    0x0800327c   0x00000184   Code   RO         5060    i._fp_digits        mc_w.l(printfa.o)
    0x08003400   0x000006dc   Code   RO         5061    i._printf_core      mc_w.l(printfa.o)
    0x08003adc   0x00000024   Code   RO         5062    i._printf_post_padding  mc_w.l(printfa.o)
    0x08003b00   0x0000002e   Code   RO         5063    i._printf_pre_padding  mc_w.l(printfa.o)
    0x08003b2e   0x0000000a   Code   RO         5065    i._sputc            mc_w.l(printfa.o)
    0x08003b38   0x0000000c   Code   RO         3928    i.bphero_setcallbacks  port.o
    0x08003b44   0x00000018   Code   RO         3704    i.deca_sleep        deca_sleep.o
    0x08003b5c   0x00000010   Code   RO         3666    i.decamutexoff      deca_mutex.o
    0x08003b6c   0x00000018   Code   RO         3667    i.decamutexon       deca_mutex.o
    0x08003b84   0x0000000e   Code   RO         4095    i.dwt_SetTxPower    deca_device.o
    0x08003b92   0x00000002   PAD
    0x08003b94   0x00000218   Code   RO         4102    i.dwt_configure     deca_device.o
    0x08003dac   0x0000001e   Code   RO         4105    i.dwt_configuretxrf  deca_device.o
    0x08003dca   0x00000024   Code   RO         4106    i.dwt_enable_pa     deca_device.o
    0x08003dee   0x00000002   PAD
    0x08003df0   0x00000040   Code   RO         4108    i.dwt_enableframefilter  deca_device.o
    0x08003e30   0x00000024   Code   RO         4110    i.dwt_entersleepaftertx  deca_device.o
    0x08003e54   0x00000060   Code   RO         4111    i.dwt_forcetrxoff   deca_device.o
    0x08003eb4   0x000000f0   Code   RO         4637    i.dwt_getrangebias  deca_range_tables.o
    0x08003fa4   0x000000dc   Code   RO         4115    i.dwt_initialise    deca_device.o
    0x08004080   0x00000024   Code   RO         4121    i.dwt_read16bitoffsetreg  deca_device.o
    0x080040a4   0x00000024   Code   RO         4122    i.dwt_read32bitoffsetreg  deca_device.o
    0x080040c8   0x00000008   Code   RO         4124    i.dwt_readdevid     deca_device.o
    0x080040d0   0x0000003a   Code   RO         4127    i.dwt_readfromdevice  deca_device.o
    0x0800410a   0x00000012   Code   RO         4128    i.dwt_readrxdata    deca_device.o
    0x0800411c   0x0000000c   Code   RO         4129    i.dwt_readrxtimestamp  deca_device.o
    0x08004128   0x0000000c   Code   RO         4135    i.dwt_readtxtimestamp  deca_device.o
    0x08004134   0x0000004e   Code   RO         4141    i.dwt_rxenable      deca_device.o
    0x08004182   0x0000000a   Code   RO         4146    i.dwt_setaddress16  deca_device.o
    0x0800418c   0x00000030   Code   RO         4152    i.dwt_setinterrupt  deca_device.o
    0x080041bc   0x000000b8   Code   RO         4153    i.dwt_setleds       deca_device.o
    0x08004274   0x0000000a   Code   RO         4154    i.dwt_setpanid      deca_device.o
    0x0800427e   0x0000000c   Code   RO         4157    i.dwt_setrxantennadelay  deca_device.o
    0x0800428a   0x00000002   PAD
    0x0800428c   0x00000058   Code   RO         4159    i.dwt_setrxtimeout  deca_device.o
    0x080042e4   0x0000000a   Code   RO         4161    i.dwt_settxantennadelay  deca_device.o
    0x080042ee   0x00000002   PAD
    0x080042f0   0x00000090   Code   RO         4164    i.dwt_starttx       deca_device.o
    0x08004380   0x00000034   Code   RO         4165    i.dwt_syncrxbufptrs  deca_device.o
    0x080043b4   0x0000001a   Code   RO         4166    i.dwt_write16bitoffsetreg  deca_device.o
    0x080043ce   0x0000001e   Code   RO         4167    i.dwt_write32bitoffsetreg  deca_device.o
    0x080043ec   0x0000003e   Code   RO         4168    i.dwt_writetodevice  deca_device.o
    0x0800442a   0x00000020   Code   RO         4169    i.dwt_writetxdata   deca_device.o
    0x0800444a   0x00000002   PAD
    0x0800444c   0x0000001c   Code   RO         4170    i.dwt_writetxfctrl  deca_device.o
    0x08004468   0x00000030   Code   RO         4171    i.dwt_xtaltrim      deca_device.o
    0x08004498   0x0000001a   Code   RO          332    i.final_msg_get_ts  dwm1000_timestamp.o
    0x080044b2   0x00000002   PAD
    0x080044b4   0x0000001c   Code   RO         3929    i.fputc             port.o
    0x080044d0   0x00000026   Code   RO          334    i.get_rx_timestamp_u64  dwm1000_timestamp.o
    0x080044f6   0x00000026   Code   RO          335    i.get_tx_timestamp_u64  dwm1000_timestamp.o
    0x0800451c   0x00000016   Code   RO           14    i.main              main.o
    0x08004532   0x0000002e   Code   RO         3930    i.peripherals_init  port.o
    0x08004560   0x0000000c   Code   RO         3931    i.portGetTickCnt    port.o
    0x0800456c   0x00000058   Code   RO         3733    i.readfromspi_serial  deca_spi.o
    0x080045c4   0x00000050   Code   RO         3932    i.reset_DW1000      port.o
    0x08004614   0x00000080   Code   RO          489    i.rx_main           rx_main.o
    0x08004694   0x00000004   Code   RO         3933    i.spi_set_rate_high  port.o
    0x08004698   0x00000004   Code   RO         3934    i.spi_set_rate_low  port.o
    0x0800469c   0x00000058   Code   RO         3734    i.writetospi_serial  deca_spi.o
    0x080046f4   0x00000010   Data   RO         3630    .constdata          system_stm32f4xx.o
    0x08004704   0x00000008   Data   RO         3631    .constdata          system_stm32f4xx.o
    0x0800470c   0x000005f0   Data   RO         3806    .constdata          lcd_oled.o
    0x08004cfc   0x00000008   Data   RO         4610    .constdata          deca_params_init.o
    0x08004d04   0x00000018   Data   RO         4611    .constdata          deca_params_init.o
    0x08004d1c   0x0000001e   Data   RO         4612    .constdata          deca_params_init.o
    0x08004d3a   0x00000002   Data   RO         4613    .constdata          deca_params_init.o
    0x08004d3c   0x00000008   Data   RO         4614    .constdata          deca_params_init.o
    0x08004d44   0x00000003   Data   RO         4615    .constdata          deca_params_init.o
    0x08004d47   0x00000001   PAD
    0x08004d48   0x0000000c   Data   RO         4616    .constdata          deca_params_init.o
    0x08004d54   0x00000004   Data   RO         4617    .constdata          deca_params_init.o
    0x08004d58   0x00000020   Data   RO         4618    .constdata          deca_params_init.o
    0x08004d78   0x00000032   Data   RO         4619    .constdata          deca_params_init.o
    0x08004daa   0x0000020a   Data   RO         4638    .constdata          deca_range_tables.o
    0x08004fb4   0x00000112   Data   RO         3936    .conststring        port.o
    0x080050c6   0x00000002   PAD
    0x080050c8   0x00000020   Data   RO         5186    Region$$Table       anon$$obj.o


    Execution Region RW_IRAM1 (Base: 0x20000000, Size: 0x000009a0, Max: 0x00010000, ABSOLUTE, COMPRESSED[0x00000104])

    Base Addr    Size         Type   Attr      Idx    E Section Name        Object

    0x20000000   0x00000004   Data   RW          175    .data               stm32f4xx_it.o
    0x20000004   0x00000004   PAD
    0x20000008   0x00000028   Data   RW          406    .data               tx_main.o
    0x20000030   0x00000030   Data   RW          491    .data               rx_main.o
    0x20000060   0x0000000f   Data   RW          540    .data               bphero_uwb.o
    0x2000006f   0x00000001   PAD
    0x20000070   0x00000002   Data   RW          542    .data               bphero_uwb.o
    0x20000072   0x00000002   PAD
    0x20000074   0x0000000c   Data   RW         3482    .data               stm32f4xx_hal.o
    0x20000080   0x00000004   Data   RW         3632    .data               system_stm32f4xx.o
    0x20000084   0x000001cc   Data   RW         3807    .data               lcd_oled.o
    0x20000250   0x00000004   Data   RW         3937    .data               port.o
    0x20000254   0x00000084   Data   RW         4664    .data               kalman.o
    0x200002d8   0x00000004   Data   RW         4814    .data               mc_w.l(stdout.o)
    0x200002dc   0x0000004c   Zero   RW          404    .bss                tx_main.o
    0x20000328   0x0000005e   Zero   RW          538    .bss                bphero_uwb.o
    0x20000386   0x0000007f   Zero   RW          539    .bss                bphero_uwb.o
    0x20000405   0x00000003   PAD
    0x20000408   0x00000128   Zero   RW         3935    .bss                port.o
    0x20000530   0x0000003c   Zero   RW         4172    .bss                deca_device.o
    0x2000056c   0x00000030   Zero   RW         4663    .bss                kalman.o
    0x2000059c   0x00000004   PAD
    0x200005a0   0x00000400   Zero   RW            1    STACK               startup_stm32f401xc.o


==============================================================================

Image component sizes


      Code (inc. data)   RO Data    RW Data    ZI Data      Debug   Object Name

       268         94          0         17        221       1854   bphero_uwb.o
      2438        102          0          0         60      24455   deca_device.o
        40          0          0          0          0      27828   deca_mutex.o
         0          0        173          0          0       4945   deca_params_init.o
       240         26        522          0          0       2147   deca_range_tables.o
        24          0          0          0          0        585   deca_sleep.o
       176         16          0          0          0       5561   deca_spi.o
       102          0          0          0          0       6473   dwm1000_timestamp.o
       468         20          0        132         48       2653   kalman.o
       538         26       1520        460          0       5198   lcd_oled.o
        24          0          0          0          0     425484   main.o
       986         16          0          0          0       6625   matrix.o
      1146        184        274          4        296      37223   port.o
       896        164          0         48          0       3145   rx_main.o
        36          8        404          0       1024        844   startup_stm32f401xc.o
       180         28          0         12          0       4661   stm32f4xx_hal.o
       228         14          0          0          0      32253   stm32f4xx_hal_cortex.o
       436         40          0          0          0       4257   stm32f4xx_hal_gpio.o
       264         10          0          0          0       3011   stm32f4xx_hal_i2c.o
       356         44          0          0          0       2973   stm32f4xx_hal_msp.o
      1294         92          0          0          0       7331   stm32f4xx_hal_rcc.o
      1478          0          0          0          0       7002   stm32f4xx_hal_spi.o
       366          0          0          0          0       4462   stm32f4xx_hal_tim.o
         4          0          0          0          0       1646   stm32f4xx_hal_tim_ex.o
      1068          8          0          0          0       4196   stm32f4xx_hal_uart.o
       130         28          0          4          0       5982   stm32f4xx_it.o
        84         18         24          4          0       1195   system_stm32f4xx.o
       212         28          0         40         76       5701   tx_main.o

    ----------------------------------------------------------------------
     13514        966       2952        728       1732     639690   Object Totals
         0          0         32          0          0          0   (incl. Generated)
        32          0          3          7          7          0   (incl. Padding)

    ----------------------------------------------------------------------

      Code (inc. data)   RO Data    RW Data    ZI Data      Debug   Library Member Name

        86          0          0          0          0          0   __dczerorl2.o
         0          0          0          0          0          0   entry.o
         0          0          0          0          0          0   entry10a.o
         0          0          0          0          0          0   entry11a.o
         8          4          0          0          0          0   entry2.o
         4          0          0          0          0          0   entry5.o
         0          0          0          0          0          0   entry7b.o
         0          0          0          0          0          0   entry8b.o
         8          4          0          0          0          0   entry9a.o
        30          0          0          0          0          0   handlers.o
        36          8          0          0          0         68   init.o
         0          0          0          0          0          0   iusefp.o
        30          0          0          0          0         68   llshl.o
        36          0          0          0          0         68   llsshr.o
        32          0          0          0          0         68   llushr.o
      2308         96          0          0          0        604   printfa.o
         0          0          0          4          0          0   stdout.o
        44          0          0          0          0         80   uidiv.o
        98          0          0          0          0         92   uldiv.o
        48          0          0          0          0         68   cdcmple.o
        48          0          0          0          0         68   cdrcmple.o
        56          0          0          0          0         88   d2f.o
       334          0          0          0          0        148   dadd.o
       222          0          0          0          0        100   ddiv.o
       186          0          0          0          0        176   depilogue.o
        62          0          0          0          0         80   dfixi.o
        74          0          0          0          0         80   dfixl.o
        48          0          0          0          0         68   dfixul.o
        40          0          0          0          0         80   dfltl.o
        26          0          0          0          0         76   dfltui.o
       228          0          0          0          0         96   dmul.o
        38          0          0          0          0         68   f2d.o
       110          0          0          0          0        168   fepilogue.o

    ----------------------------------------------------------------------
      4246        112          0          4          0       2412   Library Totals
         6          0          0          0          0          0   (incl. Padding)

    ----------------------------------------------------------------------

      Code (inc. data)   RO Data    RW Data    ZI Data      Debug   Library Name

      2720        112          0          4          0       1048   mc_w.l
      1520          0          0          0          0       1364   mf_w.l

    ----------------------------------------------------------------------
      4246        112          0          4          0       2412   Library Totals

    ----------------------------------------------------------------------

==============================================================================


      Code (inc. data)   RO Data    RW Data    ZI Data      Debug   

     17760       1078       2952        732       1732     627438   Grand Totals
     17760       1078       2952        260       1732     627438   ELF Image Totals (compressed)
     17760       1078       2952        260          0          0   ROM Totals

==============================================================================

    Total RO  Size (Code + RO Data)                20712 (  20.23kB)
    Total RW  Size (RW Data + ZI Data)              2464 (   2.41kB)
    Total ROM Size (Code + RO Data + RW Data)      20972 (  20.48kB)

==============================================================================

